:100000000C94DF000C9410170C94E9160C94070163
:100010000C9407010C9407010C9407010C94070140
:100020000C9407010C9407010C9407010C94070130
:100030000C9407010C9407010C9407010C94070120
:100040000C949F160C9407010C945D170C943717B1
:100050000C9407010C9407010C9407010C94070100
:100060000C9407010C94070172657120627265613E
:100070006B20666F726365206F7574206F662072E7
:10008000616E676520616674657220636F6E766568
:100090007273696F6E3A20007265712062726561D9
:1000A0006B20666F726365206F7574206F662072B7
:1000B000616E67653A200052657175657374656499
:1000C00020627265616B20666F7263652068617380
:1000D000206265656E206F7574206F662072616E98
:1000E000676521210020004D4350204572723A205F
:1000F000004550422C204C65747320676F0020002F
:1001000020003A200053656E643A203078000000E9
:100110000000230026002900000000002400270022
:100120002A0000000000250028002B00040404041D
:100130000404040402020202020203030303030391
:10014000010204081020408001020408102001026E
:10015000040810200000000800020100000304074A
:1001600000000000000000003536443930374550AB
:10017000422020312E3020455042205043424550ED
:10018000422050434220202020563031523803492B
:100190000F2C404A3532374E4F4E452045504220B5
:1001A00050434231362E30362E3232313435342DF2
:1001B0002D2D2D5620312E30202020008F17112478
:1001C0001FBECFEFD8E0DEBFCDBF12E0A0E0B1E0B0
:1001D000ECE9FEE402C005900D92A232B107D9F716
:1001E00026E0A2E2B2E001C01D92AA31B207E1F717
:1001F00010E0CFEDD0E004C02197FE010E941E2642
:10020000CE3DD107C9F70E9470190C944C270C946D
:1002100000008CBD9DBD08959091EB05993040F490
:10022000891730F4E82FF0E0EB51FA4F87810895F9
:1002300080E00895CF93C62F0E940C0190E002C089
:1002400095958795CA95E2F78170CF9108958F9221
:100250009F92AF92BF92CF92DF92EF92FF92209146
:100260000F0585E5282750E040E090E030E067E0AA
:1002700070E0812C912C54018394FB01E41BF50B5D
:100280007501640104C0CC0CDD1CEE1CFF1CEA955A
:10029000D2F7F901042E02C0F595E7950A94E2F72A
:1002A000E0FF25C09C294F5F5F4F4830510529F77B
:1002B000E92FE295EF709F709E0FE92FE295EF70A6
:1002C0009F70E90FF0E0EA5AFB4F8081820F932F75
:1002D000911D9695982F882797958795FF90EF9079
:1002E000DF90CF90BF90AF909F908F900895C09473
:1002F0009C21D9CF9091880490930F01A7E4B5E099
:100300009C9123E0929FF0011124E45FFE4F8483CF
:10031000658346839F5F9C930895482F692F86E3EA
:1003200090E00C947A0143ED61E085E290E00C945A
:100330007A01833081F028F4813099F08230A9F07D
:1003400008958730A9F08830C9F08430B1F48091E5
:1003500080008F7D03C0809180008F778093800024
:10036000089584B58F7784BD089584B58F7DFBCFC4
:100370008091B0008F778093B00008958091B00095
:100380008F7DF9CF1F93CF93DF93282F30E0F901B2
:10039000EC5AFE4F8491F901E05CFE4FD491F901D3
:1003A000E45DFE4FC491CC23A9F0162F81110E9469
:1003B0009901EC2FF0E0EE0FFF1FEE5DFE4FA591CF
:1003C000B4918FB7F894EC91111108C0D095DE2349
:1003D000DC938FBFDF91CF911F910895DE2BF8CF73
:1003E000CF93DF9390E0FC01E05CFE4F2491845DAD
:1003F0009E4FFC0184918823D1F090E0880F991FD3
:10040000FC01E85EFE4FA591B491FC01EE5DFE4F4C
:10041000C591D491623071F49FB7F8943C91822FCA
:10042000809583238C93E8812E2B28839FBFDF91B7
:10043000CF9108958FB7F894EC912E2B2C938FBF0A
:10044000F6CF3FB7F89480910C0390910D03A091E3
:100450000E03B0910F0326B5A89B05C02F3F19F0DE
:100460000196A11DB11D3FBFBA2FA92F982F882734
:10047000BC01CD01620F711D811D911D42E0660F0F
:10048000771F881F991F4A95D1F708958F929F92E1
:10049000AF92BF92CF92DF92EF92FF924B015C013D
:1004A0000E9421026B017C010E9421026C197D09CE
:1004B0008E099F09683E734081059105A8F321E0EC
:1004C000821A9108A108B10888EEC80E83E0D81EF0
:1004D000E11CF11C81149104A104B10429F7FF90DF
:1004E000EF90DF90CF90BF90AF909F908F90089546
:1004F0002FB7F894609108037091090380910A0363
:1005000090910B032FBF08958F929F92AF92BF924D
:10051000CF92DF92EF92FF92CF93DF93EC016B01CA
:10052000F12CE12C88809980AA80BB808C0C9D1CCA
:10053000AE1CBF1C0E947802681579058A059B05D0
:10054000B8F088819981AA81BB81C80ED91EEA1EA4
:10055000FB1E0E9478026C157D058E059F0530F00C
:100560000E947802688379838A839B8381E001C03B
:1005700080E0DF91CF91FF90EF90DF90CF90BF9020
:10058000AF909F908F90089508950895AF92BF9275
:10059000CF92DF92EF92FF920F931F93CF93DF934F
:1005A0006C017B018B01040F151FEB015E01AE187E
:1005B000BF08C017D10759F06991D601ED91FC91A0
:1005C0000190F081E02DC6010995892B79F7C501CD
:1005D000DF91CF911F910F91FF90EF90DF90CF901F
:1005E000BF90AF900895FC01538D448D252F30E0CE
:1005F000842F90E0821B930B541710F0CF96089530
:1006000001970895FC01918D828D981761F0A28D5C
:10061000AE0FBF2FB11D5D968C91928D9F5F9F7322
:10062000928F90E008958FEF9FEF0895FC01918DD8
:10063000828D981731F0828DE80FF11D858D90E045
:1006400008958FEF9FEF0895FC01918D228D892FE2
:1006500090E0805C9F4F821B91098F7399270895CA
:100660008EE293E00E94240321E0892B09F420E02C
:10067000822F089580E090E0892B29F00E943003BA
:1006800081110C9400000895FC01A48DA80FB92FCE
:10069000B11DA35ABF4F2C91848D90E001968F73AA
:1006A0009927848FA689B7892C93A089B1898C91C9
:1006B000837080648C93938D848D981306C0028818
:1006C000F389E02D80818F7D80830895EF92FF92E2
:1006D0000F931F93CF93DF93EC0181E0888F9B8D65
:1006E0008C8D98131AC0E889F989808185FF15C01F
:1006F0009FB7F894EE89FF896083E889F989808142
:100700008370806480839FBF81E090E0DF91CF9110
:100710001F910F91FF90EF900895F62E0B8D10E032
:100720000F5F1F4F0F731127E02E8C8D8E110CC0A1
:100730000FB607FCFACFE889F989808185FFF5CFEC
:10074000CE010E944403F1CFEB8DEC0FFD2FF11D84
:10075000E35AFF4FF0829FB7F8940B8FEA89FB8929
:1007600080818062CFCF0F931F93CF93DF938C0153
:10077000D0E0C0E0F801EC0FFD1F6491662341F06A
:100780008EE293E00E946603892B11F02196F2CF4E
:10079000CE01DF91CF911F910F910895CF93DF93F9
:1007A000EC01888D8823B9F0AA89BB89E889F98989
:1007B0008C9185FD03C0808186FD0DC00FB607FCBE
:1007C000F7CF8C9185FFF2CF808185FFEDCFCE01F1
:1007D0000E944403E9CFDF91CF91089508958EBD23
:1007E00000000DB407FEFDCF8EB50895FF920F9364
:1007F0001F93CF93DF93C82FF62E172F042F80E57A
:1008000091E00E94090160E0809108060E94C20107
:1008100083E00E94EF038C2F0E94EF03CF2DD12F96
:100820000C0F1D2F111DC017D10729F080E00E9469
:10083000EF038993F8CF61E080910806DF91CF91B3
:100840001F910F91FF900C94C201FF920F931F9381
:10085000CF93DF93EC01F62E042F122F80E591E069
:100860000E94090160E088890E94C20185E00E941F
:10087000EF038F2D0E94EF03802F0E94EF03812F43
:100880000E94EF0361E08889DF91CF911F910F9162
:10089000FF900C94C201DF92EF92FF920F931F938F
:1008A000CF93DF937C01C62FD42E152F022F80E526
:1008B00091E00E94090160E0F70180890E94C20175
:1008C00082E00E94EF038C2F0E94EF03CD2DD12FE9
:1008D0000C0F1D2F111DC017D10721F089910E9407
:1008E000EF03F9CF61E0F7018089DF91CF911F918C
:1008F0000F91FF90EF90DF900C94C201CF93DF93A4
:1009000000D000D0CDB7DEB71C821B82613099F4D5
:1009100098E09A83198224E0AE014F5F5F4F682F01
:1009200088EF95E00E944B040F900F900F900F906E
:10093000DF91CF9108951A82EDCF0F931F93CF933C
:10094000DF93EC01062F142F80E591E00E9409014E
:1009500060E088890E94C20182E00E94EF03802F3C
:100960000E94EF03812F0E94EF0361E08889DF91ED
:10097000CF911F910F910C94C2011F93CF93DF93DE
:10098000EC01162F80E591E00E94090160E0888962
:100990000E94C20183E00E94EF03812F0E94EF03B7
:1009A00080E00E94EF03182F61E088890E94C20155
:1009B000812FDF91CF911F9108952F923F924F92F7
:1009C0005F926F927F928F929F92AF92BF92CF92DF
:1009D000DF92EF92FF920F931F93CF93DF9300D09C
:1009E00000D0CDB7DEB77C01FC0141835283638325
:1009F0007483168610822583F801DC011696C801DF
:100A000008965A2ECB2E21912D93E817F907D9F786
:100A1000B12CA12C20902001309021014090220186
:100A20004E01F4E08F0E911C29823A824B82CE0156
:100A300001963C01D82E072DF30111913F01612F42
:100A4000C7010E94BD0483FD0DC01F5F80E0FFEF62
:100A5000AF1ABF0A823061F482E3A816B10421F70D
:100A600096E071C08614970439F710E082E0EFCF6A
:100A700092E3A916B104A1F3F7012581452D5C2D60
:100A800065E0610FC7010E944B04F7018685813044
:100A900019F4858180648583F701458164E0610FE5
:100AA000C7010E949D04F70181819281A381B481D5
:100AB00020812130B1F58C839B83CD01AA27BB27F0
:100AC000282F23702860382F330F330F330F307ED9
:100AD000232B2A8335E0969587953A95E1F789830C
:100AE00024E04D2D502F612FC7010E944B0411505F
:100AF00028E048E0612FC7010E942504D12CC12CB9
:100B0000FFEFCF1ADF0A612FC7010E94BD04982FA3
:100B1000987083FF14C082E3C816D10489F797E068
:100B200012C09C0193E0369527959A95E1F72983A9
:100B30008295880F807E8A831C821B82D1CFE2E35C
:100B4000CE16D10461F3892F0F900F900F900F9064
:100B5000DF91CF911F910F91FF90EF90DF90CF9099
:100B6000BF90AF909F908F907F906F905F904F90CD
:100B70003F902F9008950F931F93CF93DF9300D052
:100B800000D0CDB7DEB7182F1092F8051092F905F6
:100B90001092FA051092FB051092FC0544E0BE018C
:100BA0006F5F7F4F0E94F6032A81898138E0839F1F
:100BB000C0011124422F50E065E0559547956A9594
:100BC000E1F7840F951F092E000CAA0BBB0B809335
:100BD000F9059093FA05A093FB05B093FC0523FF5C
:100BE00029C032E0880F991FAA1FBB1F3A95D1F781
:100BF0002370820F911DA11DB11DBA2FA92F982F0F
:100C000088272B81820F911DA11DB11DBA2FA92FFD
:100C1000982F88272C81820F911DA11DB11D8093D3
:100C2000F9059093FA05A093FB05B093FC0581E0CC
:100C30008093F8056FEF610F88EF95E00E94BD0487
:100C4000082F64E0610F88EF95E00E94BD0403FF68
:100C500016C091E090930606482F4F704093FD0513
:100C60006EEF75E085E0810F0E94F6030F900F9004
:100C70000F900F90DF91CF911F910F9108951092D7
:100C80000606EACFCF93DF93C82F0E947802D62FB3
:100C90002C2F40EE6FE088EF95E00E9425046EE077
:100CA00088EF95E00E94BD04807EC81749F00E943D
:100CB00078026D1B693C60F381E0DF91CF9108956C
:100CC00080E0FBCFCF93DF93C82F6EE088EF95E0F5
:100CD0000E94BD04807E803239F5C03229F16BE27A
:100CE00088EF95E00E94BD04D82FD07486FD07C020
:100CF00020E440E46BE288EF95E00E94250420E4C4
:100D000040E46CE288EF95E00E94250480E60E94B2
:100D10004206811115C0D11107C020E040E46BE20A
:100D200088EF95E00E94250420E040E46CE288EF23
:100D300095E00E9425048C2FDF91CF910C94420600
:100D400081E0DF91CF91089520911A0330911B0328
:100D50009091EE022333310538F420911203309143
:100D60001303243F314028F49D7F9093EE0280E0EE
:100D7000089580FB91F99093EE0281E00895FC01C3
:100D8000278530892115310539F0908192FD06C003
:100D9000108A178694609083C901089530E020E09E
:100DA000FBCF8F929F92AF92BF92CF92DF92EF9242
:100DB000FF921F93CF93DF93EC01162F888160FB86
:100DC00084F9888381FB992790F9462F491B550B9D
:100DD0009A014F8558894217530731F0961721F031
:100DE000388B2F878B7F88838881817081131DC00A
:100DF00081E0812798136DC00E947802CD84DE8443
:100E0000F12CE12C8D809E80AF80B884681979091F
:100E10008A099B09C616D706E806F90630F08881CC
:100E200083FD03C08062886088838881817081131C
:100E300021C0988191FB332730F921E02827321314
:100E400019C080FB91F9988319861A861B861C8627
:100E50000E94780269837A838B839C83DF91CF9190
:100E60001F91FF90EF90DF90CF90BF90AF909F9039
:100E70008F90089591E09827911313C098819695CB
:100E800091709813EBCF0E9478026D837E838F83DD
:100E900098879881892F8D7F90FF82608F7D8883CE
:100EA000DDCF8113DBCF9881969591709813D6CFC3
:100EB0000E947802C980DA80EB80FC806C197D0981
:100EC0008E099F0969877A878B879C878881877FAE
:100ED000E6CF812FAECFFC0101900020E9F73197DA
:100EE000AF01481B590BBC018EE293E00C94C60283
:100EF0008AE791E00C946B07CF93DF930E94B303D2
:100F0000EC010E9478078C0F9D1FDF91CF9108950F
:100F10008F929F92AF92BF920F931F93CF93DF93C5
:100F2000CDB7DEB7A1970FB6F894DEBF0FBECDBF29
:100F300019A2423008F44AE08E010F5D1F4F842E43
:100F4000912CB12CA12CA50194010E94D925E62F4A
:100F5000B901CA01EA30F4F4E05DD801EE938D01E5
:100F6000232B242B252B79F790E080E0109719F0A4
:100F7000CD010E946B07A1960FB6F894DEBF0FBE9D
:100F8000CDBFDF91CF911F910F91BF90AF909F90F8
:100F90008F900895E95CE1CFCF93DF930E946B07B8
:100FA000EC010E9478078C0F9D1FDF91CF9108956F
:100FB000CF92DF92EF92FF92CF93DF936C01990F64
:100FC000EE08FF08F7FE19C06DE28EE293E00E9482
:100FD0006603EC0166277727CB016C197D098E0922
:100FE0009F094AE00E9488078C0F9D1FDF91CF91D7
:100FF000FF90EF90DF90CF9008954AE0C701B601CF
:10100000DF91CF91FF90EF90DF90CF900C94880705
:101010004F925F926F927F928F929F92AF92BF9208
:10102000CF92DF92EF92FF920F931F93CF936B01BA
:101030007C01742EAC019B010E943E27882399F00D
:101040008DE791E0CF911F910F91FF90EF90DF908E
:10105000CF90BF90AF909F908F907F906F905F9058
:101060004F900C946B0746015701E894B7F82FEFA7
:101070003FEF4FE75FE7C501B4010E943E278111B2
:101080000DC02FEF3FEF4FE75FE7C501B4010E94AE
:101090006D2418161CF481E891E0D4CF2FEF3FEFB8
:1010A0004FE75FE4C701B6010E94392718161CF408
:1010B00085E891E0C7CF2FEF3FEF4FE75FECC70127
:1010C000B6010E946D2487FDF3CF20E030E0A90136
:1010D000C701B6010E946D2410E000E087FF0AC03E
:1010E0006DE28EE293E00E9466038C01F7FAF094C1
:1010F000F7F8F094C0E060E070E080E09FE37C16D9
:1011000041F020E030E040E251E40E949126CF5FC0
:10111000F6CFA70196010E9425262B013C010E94D3
:101120000A274B015C014AE00E9488077C01E00E1F
:10113000F11ECC23C1F1C501B4010E9472249B01B0
:10114000AC01C301B2010E9424264B015C016EE296
:101150008EE293E00E946603E80EF91EC15018F17A
:1011600020E030E040E251E4C501B4010E94D32404
:101170002B013C010E940A274B01B12CA12C4AE013
:10118000C501B4010E948807E80EF91EC501B4012B
:101190000E9472249B01AC01C301B2010E9424266B
:1011A0004B015C01DBCFC701CF911F910F91FF90E5
:1011B000EF90DF90CF90BF90AF909F908F907F90F7
:1011C0006F905F904F9008958F929F92AF92BF92D1
:1011D000CF92DF92EF92FF926B017C01809122020D
:1011E000882321F087EB90E00E947C072BED39EFFC
:1011F0004EEF50ECC701B6010E946D2487FD0AC076
:1012000022E03BE247E850E4C701B6010E943927DB
:10121000181604F588E990E00E94B30342E0C70184
:10122000B6010E9408080E94780760E070E0CB01D8
:101230000E94E40880E00E94A40681E080932202DC
:1012400080E0FF90EF90DF90CF90BF90AF909F90A5
:101250008F9008952BED39EF4EEF50E4C701B601A2
:101260000E94252626EA3BE944E45DE30E9491269C
:101270004B015C0120E030E04FE753E40E94392746
:1012800018164CF020E030E0A901C501B4010E941D
:101290006D2487FF03C088E690E0BECFC501B4018E
:1012A0000E940A276093ED0281E0CBCFAF92BF92FC
:1012B000DF92EF92FF920F931F93CF93DF93EC0196
:1012C000D62E8A012223C9F07A01A62EB12CC7019D
:1012D000801B910B8A159B0574F485EE90E00E94AB
:1012E000B303F70161917F0170E090E080E040E19D
:1012F0000E948807ECCF0E947807AE0170E060E0A2
:101300002D2D88EF95E00E94DD04DF91CF911F9194
:101310000F91FF90EF90DF90BF90AF9008959F9254
:10132000AF92BF92CF92DF92EF92FF920F931F93F3
:10133000CF93DF93CDB7DEB728970FB6F894DEBF13
:101340000FBECDBF082F6B01942E10E0A82EB12C3C
:10135000CE0101967C011017C0F5E12FF0E0C50128
:101360008E1B9F0B0897ECF4602F611B90E180911E
:10137000080521E0280F209308058F70892B8983A9
:10138000EC0DFD1DD701262F30E0CD018E199F09F0
:10139000821793074CF4819111968C9311971196B3
:1013A000F4CF67E090E2E3CF6F5F292DA701809132
:1013B0003705909138050E94560961E070E080E0A1
:1013C00090E00E944602195FC6CF28960FB6F894A7
:1013D000DEBF0FBECDBFDF91CF911F910F91FF9068
:1013E000EF90DF90CF90BF90AF909F900895CF93F4
:1013F000DF9300D000D000D0CDB7DEB71A821982BB
:1014000093E09B839FE79C838D836E83E8E0F5E008
:10141000808191E0980F90838F708061898320E0B4
:10142000AE014F5F5F4F66E08091370590913805C0
:101430000E94560926960FB6F894DEBF0FBECDBFA8
:10144000DF91CF910895FB01823020F461E180812A
:101450000C94F7090C948F09E8E0F5E0808191E0A5
:10146000980F90838F7080618093840483E08093D1
:101470008604E7E8F4E080818064808320E044E82B
:1014800054E066E080913705909138050C94560938
:10149000282F9091080581E0890F809308059F709F
:1014A00090619093840410928504909187049064D5
:1014B000909387048091370590913805211109C0D8
:1014C00024E02093860420E044E854E067E00C9494
:1014D000560935E03093860420938B0420E044E8DD
:1014E00054E068E0F4CFCF93DF93D82F61E070E051
:1014F00080E090E00E944602D03909F465C008F00F
:1015000049C0D73809F45CC050F4DC3709F46AC02C
:10151000C8E063EB71E0DE3751F0C0E031C0D9388C
:1015200009F474C0C5E067E971E0DC38B1F7E09117
:101530000505AE2FB0E0AB53BB4F81EF8C9382E03B
:101540008E0F80930505EF5FF0E0EB53FB4FD083E8
:10155000C63038F0FB019081911103C06B5F7F4F63
:10156000C5504C2F50E090E08B539B4FD03909F081
:1015700051C00E944327809105058C0F809305057B
:1015800061E070E080E090E00E9446028C2FDF91E5
:10159000CF910895D33A91F140F4D13999F1C7E050
:1015A00067E771E0D73919F2B8CFDA3AF9F0DF3DE1
:1015B00009F1D53A09F0B1CFC6E06CE871E0B7CFD8
:1015C000CBE068E671E0B3CFA6E6B4E0EDE1F3E08E
:1015D0008D91819383E0EE32F807D1F7C1E16DE19F
:1015E00073E0A5CFC7E16CE971E0A1CFC4E063E986
:1015F00071E09DCFC1E062E971E099CFC3E069E895
:1016000071E095CFCBE06EE771E091CFC4E063E786
:1016100071E08DCF0E946424AECF1F93CF93DF93F0
:10162000EC01162F0E949125181739F0612FCE0179
:10163000DF91CF911F910C949925DF91CF911F914C
:101640000895EF92FF920F931F93CF93DF9389E852
:1016500091E00E94CC070CED13E086EFE82E83E0CA
:10166000F82EC0E3D0E0F80161810E5F1F4FCE017C
:101670000E940D0BF80132976081CE0101960E9405
:101680000D0BF70161917F01CE0102960E940D0BB7
:101690002396C735D10539F7DF91CF911F910F916F
:1016A000FF90EF9008958091DC03882341F0109221
:1016B000DD031092DC030E94210B81E0089580E09D
:1016C00008951F93CF93DF93EC01172F01960E948B
:1016D0000D0B612FCE01DF91CF911F910C940D0B5B
:1016E0000C9491251F93CF93DF93EC0101960E94F8
:1016F000700B182FCE010E94700B90E0982F882756
:10170000810F911DDF91CF911F91089582E190E0AB
:101710000E94700B80930F0581E008954F925F92B5
:101720006F927F928F929F92AF92BF92CF92DF92F1
:10173000EF92FF920F931F93CF93DF9300D000D0CF
:1017400000D01F92CDB7DEB70E9478020091390415
:1017500010913A0420913B0430913C04601B710BC2
:10176000820B930B693B7B408105910520F48091AE
:101770003704811110C01092370410921A0510928C
:1017800019058FEF9FEF90931C0580931B05109216
:101790003D0410923E0480915004882349F064EC8B
:1017A00079E081E594E00E94840281111092500456
:1017B0008091E7059091E805A091E905B091EA05CF
:1017C000893733E09307A105B10561F08A3144E020
:1017D0009407A105B10531F08A33E2E09E07A10527
:1017E000B105A9F4E0913505F0913605EE0FFF1F24
:1017F000EE0FFF1FED5DFA4F208131812E3F324009
:1018000031F422E030E030933605209335058731FE
:1018100024E09207A105B10531F0873432E0930747
:10182000A105B105A9F4E0913505F0913605EE0F5B
:10183000FF1FEE0FFF1FED5DFA4F20813181283D24
:10184000324031F421E030E0309336052093350505
:101850008531E4E09E07A105B10531F08533F2E062
:101860009F07A105B105A9F4E0913505F091360572
:10187000EE0FFF1FEE0FFF1FED5DFA4F208131814C
:101880002A31334031F422E030E0309336052093A2
:1018900035058F359640A1F480E00E940C0181113E
:1018A0004DC085E00E940C018093660486E00E9492
:1018B0000C018093670487E00E940C018093680408
:1018C000609110058BEC93E00E94D1068091100589
:1018D000882309F47FC08091190590911A058A3BED
:1018E000934249F48091490561E090E00E940D0B1C
:1018F00081E0809310058BEC93E00E94BF06019677
:1019000031F48091490560E090E00E940D0BE09079
:10191000EB0538E03E1508F4E12CE0927B040CE77F
:1019200014E06801F12CEF1409F471C08F2D0E94AE
:101930000C01D6018D936D01F394F5CF813019F52B
:101940000E940C018093690482E00E940C01809344
:101950006A0483E00E940C0180936B0484E00E947F
:101960000C0180936C0485E00E940C0180936D044F
:1019700086E00E940C0180936E0487E00E940C01B7
:1019800080936F049DCF823009F09ACF81E00E944E
:101990000C018093700482E00E940C01809371041A
:1019A00083E00E940C018093720484E00E940C0189
:1019B0008093730485E00E940C018093740486E098
:1019C0000E940C018093750487E00E940C018093B3
:1019D000760476CF0E9478020091CC031091CD035B
:1019E0002091CE033091CF03601B710B820B930BC0
:1019F00000911305109114052091150530911605DD
:101A0000061717072807390708F065CF6BCF8091B5
:101A1000E7059091E8058115B2E09B0729F4209134
:101A20003804222309F471C0E0913505F0913605A0
:101A3000EE0FFF1FEE0FFF1FED5DFA4F208131818A
:101A40008217930709F0C5C00E9478026093390499
:101A500070933A0480933B0490933C0480917C04FF
:101A6000982F92959F708F70809309059A3009F096
:101A7000ECC081111FC080917B048630D9F481EACB
:101A800089838AE48D8380917D048A8380917E049A
:101A90008B8380917F048C83809181048E8320E0EE
:101AA000AE014F5F5F4F66E080913705909138053A
:101AB0000E945609809109058330A1F486E0E3E293
:101AC000F1E0DE01119601900D928A95E1F720E098
:101AD000AE014F5F5F4F66E080913705909138050A
:101AE0000E94560980910905883009F072C0109251
:101AF000370480910A05823009F099C010920A05D6
:101B0000109208051092070564C080915504811158
:101B100017C00E947802611571058105910511F0C9
:101B20000E945B240E940C242EEF30E040E050E045
:101B30000E94A7256F5F7F4F8F4F9F4F6093550483
:101B400090917C04E0913505F0913605092F10E065
:101B5000DF01AA0FBB1FAA0FBB1FAF5DBA4F2D91AC
:101B60003C910217130709F04BC090930605809132
:101B70007D04803C71F580917B04873051F5809124
:101B800081049091800420918004309181043093ED
:101B9000380520933705198220ED2A8321E02F8311
:101BA0009B838C83EE0FFF1FEE0FFF1FED5DFA4F3F
:101BB000908181819D838E8320E0AE014F5F5F4FD6
:101BC00067E0C80192600E945609109207051092C2
:101BD000080527960FB6F894DEBF0FBECDBFDF9184
:101BE000CF911F910F91FF90EF90DF90CF90BF901A
:101BF000AF909F908F907F906F905F904F900895DF
:101C00009E3F39F780917E04843119F780917F04DB
:101C10008F3FF9F6809181048A3A11F08535C9F633
:101C20000E94530B8823A9F20E942C0AD2CF8091E4
:101C300037059091380528EA298320E0AE014F5FEF
:101C40005F4F61E00E9456095BCF9B3009F046C0B0
:101C500080910A058130A1F482E080930A05809189
:101C600037059091380528EA298320E0AE014F5FBF
:101C70005F4F61E00E945609109208051092070517
:101C800080910E058A3511F58BE980930E058091C0
:101C9000290190912A01A0912B01B0912C018983F7
:101CA0009A83AB83BC838091080591E0980F909351
:101CB00008058F708061898320E0AE014F5F5F4F20
:101CC00064E0809137059091380569C08B3909F03F
:101CD00080CF10920E0561E180E02EC19230C1F5F7
:101CE0008F5F8F708093070580910B05882381F0AB
:101CF00030917B049091C404ADE7B4E0E92F81E01A
:101D00008E0F282F291B2317E0F0E093C40461CF26
:101D100081E080930B0580917E0480930D05809176
:101D20007F0480930C051092C40489E0815021F453
:101D300088E08093C4044DCFF80191918F0197837F
:101D4000F5CF2D91F0E0EC57FB4F2083E82FD7CF54
:101D5000911128C08F5F982F9F7090930705309145
:101D60007B044091C40480E0E42FE80F381749F069
:101D7000D8012D918D01F0E0EC57FB4F20838F5F50
:101D8000F3CFE093C404E0913705F0913805905506
:101D9000998320E0AE014F5F5F4F61E0CF010E9469
:101DA000560917CF913009F014CF70910B057111BE
:101DB0000BC090917E0490930D0590917F049093B9
:101DC0000C051092C40490E0E0917B046091C4047F
:101DD000492F50E045535C4F262F30E025533C4FB0
:101DE0006F5F9E1708F072C0DA01AF54BF4FFC91CD
:101DF00027543F4FD901FC939F5F4F5F5F4F98304F
:101E000059F76093C40491E0909337048F5F982F43
:101E10009F70909307051091880420918A04809107
:101E20008904D090860400918704713031F41092B7
:101E30000B05D0900D0500910C05DD2009F4C9CEED
:101E4000E82EF12CFE2CEE24E20EF11CE091370579
:101E5000F09138059055998320E0AE014F5F5F4FB8
:101E600061E0CF010E945609E0EFE00FE83208F090
:101E700054C7F0E0E25CF04F0C941E266B0F8D16F9
:101E80008D168D16C8138D168D168D168C138D1606
:101E9000B50F8D168D168D168D168D168D16311269
:101EA000B80F8D168D168D168D16CF138D168D16B7
:101EB0008D168D168D168D1671108D168D16BC1003
:101EC0001212E115F4150116A314C11527543F4F42
:101ED000D9011C9291CF10923F041938E1F410926D
:101EE0003E0410923D0485E0EDE2F1E0DE01119642
:101EF00001900D928A95E1F78091080591E0980F85
:101F0000909308058F708061898320E0AE014F5F58
:101F10005F4F65E0D6CE163891F48091100567E3E7
:101F2000882349F080913D04823020F081E0809345
:101F30003E047ACE63E380E10E94F7094ACE8DE742
:101F4000810F823058F4133819F481E080933F04F4
:101F500080913D04823070F382E0E9CF61E180E15D
:101F60000E94F70910923E0434CE61E18AE1E4CF89
:101F7000113F89F583E08093050513E0D81209C06D
:101F8000809189040E94730A811112C061E382E288
:101F9000D3CFB1E0BD1560F4DA94DA941E5FE12F7F
:101FA000F0E0EC57FB4F80810E94730AD110F1CF13
:101FB0001092C504809105059EEF980F9093C6047A
:101FC00092E69093C70440E065EC74E00E94230A17
:101FD00010920505FECD143009F043C0909189049C
:101FE00089EF890F823028F58091080521E0280FBC
:101FF000209308058F708061809384041093860479
:102000008091870480648093870410918A049730BC
:1020100061F483E190E00E94700B812B80938A042D
:1020200020E044E854E067E04CCE80914A0590E01F
:10203000F2CF953009F0AACF8091080591E0980F72
:10204000909308058F7080618093840410938604B8
:102050008091870480648093870480918A048C6CCB
:10206000DDCF163099F5809189048130C9F020F0D8
:10207000863009F430CE8ACF0E94860B198284E024
:102080008A8382E68B831C831D8280910F058E8359
:1020900040E0BE016F5F7F4F86E00E948F0999CDBF
:1020A0008091080591E0980F909308058F708061EA
:1020B0008093840484E08093860480918704806404
:1020C0008093870480918A048160A8CF173039F407
:1020D000809189048053823008F4FDCD57CF61E1AF
:1020E00056CF80918904883909F49ECD163009F0C5
:1020F00022C6811120C680910D05843009F01BC6CF
:1021000083E08B838FE78C8380E88A838EE28D83E4
:1021100088E78E838091080591E0980F90930805D9
:102120008F708061898320E0AE014F5F5F4F66E072
:1021300080913705909138050E94560980918A0454
:1021400080930F05887F09F0EAC581E08093180528
:10215000109217050E942701BC018091480590E06C
:102160000E94610B0E94860B5FCD109210051092A9
:10217000170566E38EE2E0CE183B09F048C0E11493
:10218000F10449F440E066E571E082E10E948F09C4
:1021900010923F041ECDE7E0EE16E1E0FE0671F579
:1021A00080918B04282F30E0322F222780918C04DD
:1021B000820F932F911D90931A05809319059C010E
:1021C0002D7F2530310509F4B8C521E08A3BF3E2C3
:1021D0009F0709F020E0845691098115934008F487
:1021E00019C1211117C161E181E30E94F7098FEF45
:1021F0009FEF90931A0580931905EBCC23E0E2162C
:1022000021E0F20609F406C161E181E395CE1A3BB3
:1022100009F05AC037E0E31631E0F30651F480913B
:102220001B0590911C05019679F781E00E94480AF0
:10223000EBCF83E0E81681E0F80631F720911B052B
:1022400030911C0581E82F3F320709F4E4C0E0908B
:102250008804F090890400918A0410918704106426
:1022600080912005882329F180911D0590911E05FC
:102270001092840429E02093850410938604E09250
:102280008704F09288040093890422E820938A044A
:1022900023E020938B0490938C0480938D048FEF24
:1022A00080938E0440E064E874E08BE00E948F0924
:1022B00090CC46E0429FC001439F900D11248C506A
:1022C0009E4F0E94720BD4CF1B3B09F04DC0A3E080
:1022D000EA16A1E0FA0609F097CFE0901D05F0900C
:1022E0001E05C0901B05D0901C0586E08C9D8001CA
:1022F0008D9D100D1124C8018A509E4F0E94720BB3
:102300008E159F0578F1CD2819F580913E0488231C
:10231000D1F008EF11E0FF24F394C8010E94720B82
:10232000BC01C80104970E94610BF0921F050A5F6F
:102330001F4F0C3AB2E01B0781F780E00E94480A69
:102340001092200546CC60E881E30E94F709F8CF9F
:10235000B701C8018C509E4F0E94610B81E08093B1
:102360001F05EBCF61E3F0CF193B09F057C081E0C7
:10237000E7E0EE16E1E0FE0609F44DC0F3E0EF16EB
:10238000F1E0FF0609F040CF20911B0530911C05BC
:1023900080918B042F3F3207D9F4282F30E03093FF
:1023A0001C0520931B052E31310554F4A6E08A9FAD
:1023B000C00111248A509E4F0E94720B892B51F547
:1023C0008FEF9FEF90931C0580931B0561E31DCF5A
:1023D00090E0982F882700918C04080F192F111D69
:1023E00010931E0500931D0546E0429FC001439FC8
:1023F000900D11248A509E4F0E94720B80179107F6
:1024000020F490931E0580931D0581E080931F05A5
:102410008093200580E00E94480ADBCB143C09F43D
:10242000D8CBF2CE183B49F4B7E0EB16B1E0FB068F
:1024300031F410921A051092190582E6ECCFE3E010
:10244000EE16E1E0FE06C9F78FEF9FEF90931C05B3
:1024500080931B0510921E0510921D0510922005F9
:10246000ECCF8091880480930F018A3709F4C7C0AC
:10247000F0F4833009F496C068F4813009F440C068
:10248000823009F479C01092470561E181E20E942F
:10249000F709A0C08630B8F790E080E00E948D0177
:1024A00090E080E00E948D0190E080E060C08D3778
:1024B00009F418C180F48B3709F403C18C3719F77C
:1024C0000E9493010E9493010E9493014BE061E0FE
:1024D00088E090E064C08E3709F415C18F3799F613
:1024E0000E9493010E947802CB010E948D010E94FC
:1024F00078020E948D0143ED61E085E290E04FC0DB
:102500004091B20542954170440F80916E058295CD
:102510008170480F440F80917F0582958170480F2C
:10252000440F8091900582958170480F440F8091EF
:10253000A10582958170480F440F80911C03480FBC
:10254000440F8091C3058295817087958827879570
:102550009091D40592959170890F480F6FEF80E1AB
:1025600090E00E947A0180911A0390911B030E94CF
:102570008D0190E080E02CC040911803440F8091C1
:102580001703480F440F80911603880F880F880F98
:1025900090911903890F480F6FEF80E190E00E943E
:1025A0007A0118C080911403909115030E948D0147
:1025B00080911203909113030E948D0180911A0360
:1025C00090911B030E948D01809110039091110343
:1025D0000E948D0190914705992309F4FACA892F29
:1025E000880F890F92E0980F90930D0141E06CE005
:1025F00071E08C5F0E94230A10924705EACA80911D
:10260000100581113DC060911305709114058091F2
:1026100015059091160558EE852E53E0952EA12CA8
:10262000B12CA50194010E94D92569010E9478026C
:102630000091CC031091CD032091CE033091CF03B4
:10264000601B710B820B930BA50194010E94D9258D
:10265000C21AD30A2CE330E0C601B9010E940A264F
:10266000AC01C601841B950BB9010E940A268CE2BD
:1026700090E00E947A010E9493010E9493012FC072
:1026800083E190E00E94700B182F80914A0590E042
:102690000E94700B212F281B330BC90120911205BA
:1026A000281719062CF44AE560E085E290E0E1CFB6
:1026B0008091110590911705891B990B0E948D013E
:1026C000DACF0E9493014EE061E088E090E00E9442
:1026D0007A0144E061E088E090E00E947A010E9483
:1026E000930178CF86EE97E00E948D0186E090E01E
:1026F0000E948D0180E190E00E948D0146E36EE032
:102700008CE290E04CCF0E9493014EE061E088E0C3
:1027100090E00E947A01B1CF2091DC033091DD037B
:10272000C901880F991F820F931F0296909384040A
:10273000822F880F820F92E0980F9093850498E57E
:102740009093860420938704E8E8F4E00BEC13E010
:10275000A8014E5F5F4F0F5F1F4FB8016B5C734066
:102760002617370770F0DA0152969C9152979083A2
:1027700051969C919183D8019B969C91928333961C
:10278000E8CF40E064E874E08C5F0E94230A21CA2D
:102790000E94530B811148CA62E284E1CDCB809143
:1027A0004204833020F480911005811109C066E352
:1027B00087E20E94F709109210051092420409CA9C
:1027C000812F8D7F813079F50E940C246093430422
:1027D00070934404809345049093460410928404BB
:1027E00026E02093850420918704206420938604AA
:1027F00020918804209387048C012227332710938B
:1028000088040093890470938A0460938B0440E0E9
:1028100064E874E088E00E948F09809142048F5F31
:1028200080934204D6C9153061F480913D04823012
:1028300020F080913E048111C7CF10923D0461E1E8
:102840003EC081E01230A9F11430D9F580918B049B
:10285000282F30E0322F222780918C04820F932F73
:10286000911DB0E0A0E04091430450914404609178
:10287000450470914604841B950BA60BB70B409141
:102880008904242F30E0322F222740918A04420FFE
:10289000532F511D70E060E0BA0155274427840F83
:1028A000951FA61FB71F87389E44A105B10531F4B7
:1028B00082E080933D0410924204B6C963E387E24C
:1028C0003BCB163009F0B9CF80913D04823008F43B
:1028D000B4CF80913E04882309F4AFCF80918B045C
:1028E000282F30E0322F222780918C04820F932FE3
:1028F000911DB0E0A0E040914304509144046091E8
:10290000450470914604841B950BA60BB70B4091B0
:102910008904242F30E0322F222740918A04420F6D
:10292000532F511D70E060E0BA0155274427840FF2
:10293000951FA61FB71F8E3D9744A105B10509F04D
:10294000BDCF83E0B6CF80914F04811133C0109288
:10295000840480904B0490904C04A0904D04B0905F
:102960004E0480928504809186048064809386045E
:10297000C0904704D090480410E0812F90E0B0E070
:10298000A0E088159905AA05BB0568F4E12EF12C95
:10299000C7018C0D9D1D0E94700BF701E957FB4F7D
:1029A00080831F5FEACF40E064E874E083E0880D35
:1029B0000E94230A80914F04882309F4DFC000910C
:1029C0003F04002309F465C0C0904704D090480438
:1029D000E0904904F0904A0480914B0490914C049B
:1029E000A0914D04B0914E0426013701480E591EA6
:1029F0006A1E7B1E26E0421A510861087108209168
:102A0000490530E04601570184149504A604B70433
:102A100098F4A4012815390534F0423151056CF4BD
:102A2000821693061CF0433151053CF04FEF841A97
:102A3000940AA40AB40AE8CF00E010918D04209112
:102A40008804203101F5209189042434E1F4409177
:102A50008A04242F30E0322F222740918B04420F2A
:102A6000532F511D70E060E0C416D506E606F70648
:102A700051F440918C0450E070E060E084179507B9
:102A8000A607B70771F11092400467E786E30E943A
:102A9000F70980913F0481116DC010E0812F90E013
:102AA000B0E0A0E040914B0450914C0460914D0483
:102AB00070914E0484179507A607B70708F058C011
:102AC000212F30E0F901E957FB4F809147049091A5
:102AD000480401976081820F931F0E940D0B1F5FB6
:102AE000DDCF20E00697A109B109422F50E070E048
:102AF00060E0481759076A077B0740F450E04257E7
:102B00005B4FFA01308113272F5FEFCF002321F0B5
:102B10001092400464E7BACF1111B5CF412F50E0B5
:102B200070E060E080914B0490914C04A0914D04C2
:102B3000B0914E040697A109B109481759076A07D1
:102B40007B0780F4812F90E0FC01E257FB4F20913E
:102B50004704309148046081820F931F0E940D0B3F
:102B60001F5FDCCF81E0809340040E942C0A91CF4C
:102B70000E942C0A10924F040C94E90D61E186E347
:102B8000DBC9109247041092480410924904109235
:102B90004A0410924B0410924C0410924D0410926F
:102BA0004E0410924F0480914004882339F08091A4
:102BB0003F04882319F081E080934104109240047F
:102BC00033C8143C11F40C94E90D153C59F4809170
:102BD0004104882321F0109241040C94140E62E702
:102BE00083E3AAC961E1FCCF80913D04823008F4FF
:102BF0007EC080913E04823008F479C081E08093E9
:102C00004F048091880490E0B0E0A0E0DC019927B7
:102C100088274091890450E070E060E0762F652FAE
:102C2000542F4427840F951FA61FB71F20918A0495
:102C3000820F911DA11DB11D8093470490934804FC
:102C4000A0934904B0934A0440918C0450E070E092
:102C500060E0BA0155274427C0908D04D12CF12C97
:102C6000E12CF9E0CC0CDD1CEE1CFF1CFA95D1F731
:102C70004C0D5D1D6E1D7F1D20918E04420F511D58
:102C8000611D711D40934B0450934C0460934D049F
:102C900070934E044E3251056105710558F581302F
:102CA000F4E09F07A105B10528F5840F951FA61F25
:102CB000B71F81309440A105B105E0F4809108056B
:102CC00091E0980F909308058F7080618093840441
:102CD00082E08093860480918704806480938704D7
:102CE0008DE28093880420E044E854E012C960E853
:102CF00084E322C9109247041092480410924904B8
:102D000010924A0410924B0410924C0410924D04FD
:102D100010924E0463E5802F0FC961E1FCCF8091D2
:102D200017058F5F8093170590911105891708F09B
:102D30001CCA0E94860B61E31DCA21E04CCA1F9287
:102D40000F920FB60F9211242F933F938F939F935F
:102D5000AF93BF938091080390910903A0910A0358
:102D6000B0910B033091070323E0230F2D3758F563
:102D70000196A11DB11D2093070380930803909332
:102D80000903A0930A03B0930B0380910C03909165
:102D90000D03A0910E03B0910F030196A11DB11D6B
:102DA00080930C0390930D03A0930E03B0930F0335
:102DB000BF91AF919F918F913F912F910F900FBE37
:102DC0000F901F90189526E8230F0296A11DB11DA4
:102DD000D2CF1F920F920FB60F9211242F933F93D1
:102DE0004F935F936F937F938F939F93AF93BF9313
:102DF000EF93FF93E0910201F09103010995FF9198
:102E0000EF91BF91AF919F918F917F916F915F9162
:102E10004F913F912F910F900FBE0F901F901895DB
:102E20001F920F920FB60F9211242F933F934F933F
:102E30005F936F937F938F939F93AF93BF93EF9322
:102E4000FF93E0910001F09101010995FF91EF914D
:102E5000BF91AF919F918F917F916F915F914F91B2
:102E60003F912F910F900FBE0F901F9018951F92BA
:102E70000F920FB60F9211242F933F934F935F93AE
:102E80006F937F938F939F93AF93BF93EF93FF9332
:102E90008EE293E00E944403FF91EF91BF91AF91C6
:102EA0009F918F917F916F915F914F913F912F9162
:102EB0000F900FBE0F901F9018951F920F920FB694
:102EC0000F9211242F938F939F93EF93FF93E09191
:102ED0003E03F0913F038081E0914403F09145036C
:102EE00082FD1BC09081809147038F5F8F7320917B
:102EF0004803821741F0E0914703F0E0E25DFC4FA8
:102F0000958F80934703FF91EF919F918F912F9120
:102F10000F900FBE0F901F9018958081F4CFCF9225
:102F2000DF92EF92FF920F931F93CF93DF93109254
:102F300031031092300388EE93E0A0E0B0E080937C
:102F4000320390933303A0933403B09335038CE69C
:102F500091E090932F0380932E0385EC90E0909363
:102F60003B0380933A0384EC90E090933D0380937D
:102F70003C0380EC90E090933F0380933E0381EC10
:102F800090E0909341038093400382EC90E0909313
:102F900043038093420386EC90E090934503809333
:102FA0004403109247031092480310924903109271
:102FB0004A0387E080930E0610920F0610921006C7
:102FC0001092110610921206109213061092140617
:102FD00010921606109217061092180610921906F3
:102FE0001092EB051092E7051092E8051092E905A2
:102FF0001092EA05CAE0C093E50582E08093E605F9
:103000008DE090E09093F5058093F40561E08AE00F
:103010000E94C20161E08AE00E94F001C0930806AC
:103020008091D40581608093D40584EF91E09093E2
:10303000E2058093E1052091C30521602093C3053B
:103040009093D1058093D0052091B2052160209303
:10305000B2059093C0058093BF052091A105216022
:103060002093A1059093AF058093AE052091900524
:1030700021602093900590939E0580939D0520915B
:103080007F05216020937F0590938D0580938C05AB
:1030900020916E05216020936E0590937C058093AE
:1030A0007B0520915D05216020935D0590936B0564
:1030B00080936A0590E080E00E94700B91E081119E
:1030C00001C090E090935C0580914B0581608093F6
:1030D0004B0584EF91E0909359058093580584E166
:1030E00080934A0595E19093490596E190934805B0
:1030F000ECEDF3E09AE1DF011D929A95E9F7E6EF36
:10310000F3E09DE0DF011D929A95E9F710923704F4
:10311000109238041092390410923A0410923B0431
:1031200010923C0410923D0410923E0410923F0411
:1031300010924004109241041092420410924704ED
:10314000109248041092490410924A0410924B04C1
:1031500010924C0410924D0410924E0410924F04A1
:10316000109250041092550490E1E2E3F1E0A6E5DC
:10317000B4E001900D929A95E1F710927B041092C1
:10318000C4041092050510920705109208051092CC
:10319000090510920A0510920B0510920C05109269
:1031A0000D0510920E0591E09093100593E0909319
:1031B00011059FE09093120545EE58E666E070E039
:1031C00040931305509314056093150570931605ED
:1031D000109217051092180510921A0510921905F1
:1031E0002FEF3FEF30931C0520931B0510921F0516
:1031F00010922005E2E4F1E0A1E2B5E001900D9229
:103200008A95E1F780E093E0909338058093370545
:10321000E9E3F5E08EE0DF011D928A95E9F710926F
:10322000470585E190E00E94700B91E0811101C09B
:1032300090E09093100584E090E0909336058093A1
:1032400035050E94860B8091CB038E7F8093CB0344
:1032500088EC90E09093D9038093D80380E390E0CA
:103260000E94720B6C018CEDE82E83E0F82ECBEC03
:10327000D3E000E310E0BDE0CB16D10494F060E0B1
:1032800080E390E00E940D0B60E081E390E0DF912D
:10329000CF911F910F91FF90EF90DF90CF900C9402
:1032A0000D0BCE018B5C9340C816D90684F0C80183
:1032B0000E94720BF701819391937F01C8010296DE
:1032C0000E94700B8BA70D5F1F4F2196EACFDF91F5
:1032D000CF911F910F91FF90EF90DF90CF900895C5
:1032E000CF93DF9300D000D000D01F92CDB7DEB7D0
:1032F000789484B5826084BD84B5816084BD85B5D1
:10330000826085BD85B5816085BD80916E008160DC
:1033100080936E0010928100809181008260809382
:103320008100809181008160809381008091800084
:103330008160809380008091B10084608093B100AF
:103340008091B00081608093B00080917A008460A9
:1033500080937A0080917A00826080937A008091D5
:103360007A00816080937A0080917A0080688093EF
:103370007A001092C100E0913E03F0913F0382E099
:103380008083E0913A03F0913B031082E0913C038B
:10339000F0913D0380E1808310924603E091420367
:1033A000F091430386E08083E0914003F091410374
:1033B000808180618083E0914003F09141038081AE
:1033C00088608083E0914003F091410380818068B0
:1033D0008083E0914003F091410380818F7D808361
:1033E00081EF90E00E947C0761E085E00E94F0019F
:1033F00061E086E00E94F00161E087E00E94F00158
:1034000061E089E00E94F00161E081E10E94F00149
:1034100062E080E10E94F00160E081E10E94C2016F
:1034200060E089E00E94C2019090F40569E170E0DB
:1034300080E090E00E944602412C512C320146E38C
:10344000E42E41E0F42E5AE4C52E51E0D52E60E47E
:10345000862E9A94A92CB12C1FB7F8948091230240
:10346000811125C0F7018491F6019491E82FF0E0D5
:10347000EE0FFF1FE85EFE4FA591B4918C9198234B
:1034800021F461E08AE00E94C20161E08AE00E94CA
:10349000F0018CB580618CBD8CB580648CBD61E021
:1034A0008DE00E94F00161E08BE00E94F0018091CC
:1034B00023028F5F809323021FBF80E591E00E946B
:1034C000090160E0809108060E94C20180EC0E9420
:1034D000EF0361E0809108060E94C20165E070E0A0
:1034E00080E090E00E9446028092090680E80E94F7
:1034F000620681110C946B23FDE0F91508F493C06A
:10350000F501EB57F54E0C941E26931AB41B8A1B3B
:103510008E1B921B961B9A1B9D1BA01BA41BA71BFB
:10352000AB1BAE1BB11B14E806EF87EA482F6AE21B
:1035300088EF95E00E949D04402F69E288EF95E0B6
:103540000E949D04412F68E288EF95E00E949D044F
:1035500061E080E20E947E0461E084E20E947E04D9
:1035600061E080E00E947E0460E084E00E947E04CE
:1035700061E088E00E947E0460E080E10E947E04B9
:1035800061E084E10E947E0460E088E10E947E04A4
:1035900010E340E0612F88EF95E00E949D0460E118
:1035A000610F40E088EF95E00E949D0460E2610FAA
:1035B00040E088EF95E00E949D041F5F1E3349F7AD
:1035C00040E060E688EF95E00E949D0440E060E7FF
:1035D00088EF95E00E949D0443E06BE288EF95E060
:1035E0000E949D044CE36CE088EF95E00E949D04EE
:1035F00040E06DE088EF95E00E949D0424E644E6FB
:1036000060E688EF95E00E94250420E640E660E74A
:1036100088EF95E00E942504809109060E946206C9
:1036200081110C946B23C12CD12C760110920906C8
:1036300080E00E946206882309F49AC08CE991E038
:103640000E946B074AE0C701B6010E9488070E94EA
:10365000780769E170E080E090E00E9446022FEF79
:10366000C21AD20AE20AF20A83E3C816D104E104BC
:10367000F104E1F610E062E08091E6050E94F001BD
:1036800020E440E46BE288EF95E00E9425048091FD
:10369000E605823009F06EC084EC92E0909301015F
:1036A00080930001809169008C7F82608093690023
:1036B000E89A83B7817F846083BF612F86E00E9490
:1036C000C20160E086E00E94C20180910F058F3F39
:1036D00011F40C94B9232091DC033091DD03A9018E
:1036E0005527EBECF3E0AEEDB3E001E010E09CE732
:1036F0004017510708F44FC06D917D916E397340AA
:1037000029F484A589278F7009F447C00F5F1F4FE4
:103710003196EECF14E806EF89E808CF13E805EEFE
:1037200087E804CF14E806EF85E800CF14E806EF39
:1037300084E8FCCE13E805EEFBCF11E803EDF8CFEB
:1037400014E806EF81E8F2CE13E805EEFBCF14E8AB
:1037500006EF80E8EBCE13E805EEFBCF11E801EDB4
:10376000E5CE10E800ECE2CE14E806EF83E9DECE09
:1037700011E081CF833009F09CCF84EC92E09093EC
:1037800003018093020180916900837F88608093A8
:103790006900E99A8ECF0FEF1FEF2C3018F00F3F22
:1037A000100791F10E9478020F3F100709F028C11D
:1037B0008091DC039091DD0301969093DD0380936B
:1037C000DC03FC01FF27EE0FFF1FE553FC4F8EE9E2
:1037D00093E0928B818B0091DC031091DD03112724
:1037E000F801E553FC4F8CE783A70E947802000F95
:1037F000111F000F111FF801ED5FFB4F60837183F4
:10380000828393830E94210B8091EA028F7B8093B5
:10381000EA028091EB02807E88608093EB0286EA68
:103820008093ED028091EE028D7E80628093EE02A5
:1038300087E080930E0610920F06109210061092E9
:103840001206109213065E01F8E0AF0EB11CA7E05D
:103850006A2E88248A94982C772473948091060386
:10386000811130C064E170E082E093E00E94840244
:10387000882341F19091EA0281E0890F8F70907F57
:10388000892B8093EA029091EB0289279091EC02B8
:1038900089279091ED0289279091EE0289279091D6
:1038A000EF0289279091F00289278093F1020AEEB6
:1038B00012E028E040EC55E060E070E088EF95E031
:1038C0000E94DD048091D902811113C06AE070E08A
:1038D00085ED92E00E948402882359F00DEC12E0FD
:1038E00028E04CE855E060E070E088EF95E00E9449
:1038F000DD048091CC0281112EC06AE070E088EC7A
:1039000092E00E948402882331F1809105018F703A
:1039100091E0980F90930501809106012091070195
:103920008227209108018227209109018227209176
:103930000A01822720910B018227892780930401A5
:1039400004E011E028E04CE854E060E070E088EF2B
:1039500095E00E94DD0468E270E084EC92E00E9451
:103960008402882309F48AC09091DB0221E0290FA8
:103970002F70907F922B9093DB022BED32E0DE01D3
:1039800011967D01F90191919F01F70191937F01BA
:10399000AE16BF06B9F73091140660910F0610916C
:1039A00012069091110670910E06EA16FB0671F14F
:1039B0002D91311101C0962F1123C1F030E0A901E2
:1039C000559547954575220F331F2A7A242B422F90
:1039D00050E09A0135952795359527952373440F27
:1039E000551F440F551F4C7C242B2295922728E00D
:1039F000382F492F990F47FD97272150D1F7D5CF61
:103A0000F801E553FC4F8CE783A7FECE80911306A7
:103A10008823C9F0292F30E0C901959587958575D0
:103A2000220F331F2A7A822B90E09C01359527952F
:103A3000359527952373880F991F880F991F8C7CC4
:103A4000822B982F92958091100698279093DA02F6
:103A500060920E0610920F06109210061092110638
:103A60001092120610921306109214061092160667
:103A70001092170610921806109219068091C30230
:103A8000882309F459C06EE170E08FEB92E00E9448
:103A90008402882309F44BC09091F402905F9093C4
:103AA000F4028091F30288608093F3028927909159
:103AB000F50289278093F20285E091E00E94B3032A
:103AC00040E16AE873E080E090E00E94880782E0CD
:103AD00091E00E94B3030AED12E0F801808D80317D
:103AE00020F490E080E00E94D807F801608D70E03B
:103AF00090E080E040E10E94880780E091E00E9431
:103B0000B3030F5F1F4F8EED92E08017910729F7E7
:103B10008EEF90E00E947C0702EF12E024E04AE87A
:103B200053E060E070E088EF95E00E94DD04809152
:103B3000BE0281111092C3026091BD020091180370
:103B4000662311F0602F672584ED95E00E94D10671
:103B50001091BC028EEF810F61E0823008F060E0CE
:103B600082EB95E00E94D1066091190381EA95E00D
:103B70000E94D1066091BB0280E995E00E94D106C7
:103B8000609116038FE795E00E94D106602F8EE6C4
:103B900095E00E94D1066091BA0283EC95E00E9404
:103BA000D10680911A0390911B03892B19F1109271
:103BB0001C0391E08091DC03811101C090E08091B1
:103BC000EE0290FB80F99091BB0288608F7E90FF9F
:103BD000806190FB85F98093EE021091D4051295D7
:103BE000117081FD5DC080910F058170111159C068
:103BF00080E057C082EB95E00E94BF06019741F537
:103C000070921C03113099F28091D405982F917015
:103C10008295817098132FC081EA95E00E94BF06BB
:103C2000019629F280E995E00E94BF06019709F408
:103C3000BECF8FE795E00E94BF06019709F4B7CF8A
:103C40008EE695E00E94BF06019709F0B2CFAFCF94
:103C500081EA95E00E94BF06019791F280E995E024
:103C60000E94BF06019661F28FE795E00E94BF06B1
:103C7000019641F6C5CF0E9478020091D9051091B6
:103C8000DA052091DB053091DC05601B710B820B9E
:103C9000930B693E73408105910508F088CFBCCF36
:103CA00081E09091EE0280FB97F99093EE02809173
:103CB000EB028F7991FD80648093EB0291E020917B
:103CC0001A0330911B032431310508F090E08091F4
:103CD000EF0290FB87F98093EF02111159C0109108
:103CE000B9028091F00210FB83F98093F002909169
:103CF0001C03992339F081E020911A0330911B03B2
:103D0000232B09F080E02091EA0280FB26F9209322
:103D1000EA028091EB02807E992339F020911A0308
:103D200030911B03232B09F488608093EB022091D0
:103D3000E60530E0F901EC5AFE4F8491F901E05CB0
:103D4000FE4F1491F901E45DFE4F0491002309F444
:103D50004CC081110E949901E02FF0E0EE0FFF1F8F
:103D6000E25FFE4FA591B491EC911E23F1F160E06A
:103D700085E00E94C20180E090E0892B09F46ECDBD
:103D80000E943003882309F467CD0E94000064CDAF
:103D90000E947802C090D505D090D605E090D70556
:103DA000F090D8056C197D098E099F096131784919
:103DB0008240910508F493CF0E947802C090D50507
:103DC000D090D605E090D705F090D8056C197D0904
:103DD0008E099F0960327F4B8240910508F07FCFAA
:103DE00080910F0582FF7BCF7CCF80E591E00E9420
:103DF000090160E0809108060E94C20180EA0E94E9
:103E0000EF0380E00E94EF03182F61E08091080625
:103E10000E94C20110FF57C081E60E94BB0520E04E
:103E200041E06CE288EF95E00E9425048091F8055E
:103E3000882389F08091F9059091FA05A091FB05FE
:103E4000B091FC05B0688093F9059093FA05A093B2
:103E5000FB05B093FC0580910606882389F08091CC
:103E6000F9059091FA05A091FB05B091FC05B064AD
:103E70008093F9059093FA05A093FB05B093FC0598
:103E80008091F9059091FA05A091FB05B091FC0590
:103E90008093E7059093E805A093E905B093EA05C0
:103EA0008091FD058093EB05E5EEF5E0CF01855EA1
:103EB000954031962091FD052817190661F05CF0B8
:103EC000808D8683F3CF11FF06C081E70E94BB057A
:103ED00020E042E0A6CF0E94780260930A06709329
:103EE0000B0680930C0690930D0661E085E00E941E
:103EF000C2010E948E0BC090E705D090E805E090CB
:103F0000E905F090EA0580E9C81683E0D806E104E7
:103F1000F10409F043C063E087E00E941A01809336
:103F2000180360E082E00E941A018093190364E0A4
:103F300083E00E941A018093170380E2C81683E091
:103F4000D806E104F10409F057C083E00E940C0197
:103F5000182F84E00E940C0190E095958795982F8A
:103F60008827810F911D64E670E00E940A267093F5
:103F70001B0360931A0390E080E00E94722426E6FF
:103F800036E646E650E40E9491266093B5027093AF
:103F9000B6028093B7029093B8024CC098EAC91653
:103FA00094E0D906E104F104D1F464E084E00E94D5
:103FB0001A01182F65E084E00E941A01880F810F12
:103FC0008093BC0266E084E00E941A018093BD02E7
:103FD00067E084E00E941A018093BA02AECFE2E764
:103FE000CE16E5E0DE06E104F104B9F461E080E01C
:103FF0000E941A018093BB0290E2C91695E0D9068F
:10400000E104F104B9F466E082E00E941A01682F2D
:104010008DE595E00E94D1060DC0F0E5CF16D104E4
:10402000E104F10409F0B1C064E081E00E941A01EA
:1040300080931603C090E705D090E805E090E9056D
:10404000F090EA05E0E8CE16E2E0DE0609F0A6C050
:1040500082E00E940C01182F83E00E940C01682F5F
:1040600070E0762F6627610F711D90E080E00E945E
:10407000722420E030E040E85EE30E94D3240E94F6
:104080000A27709313036093120385E00E940C01CA
:10409000682F70E090E080E00E9474242DEC3CECEE
:1040A0004CEC5EE30E94D3240E9403277093150317
:1040B0006093140320E2C21624E0D206E104F10466
:1040C00009F0EAC082E00E940C018F3F09F4DFC0D2
:1040D000682F70E090E080E00E94742420E030E0DF
:1040E00040E05FE30E94D32420E030E048E452E463
:1040F0000E9424260E9403277093110360931003EB
:104100008DE595E00E94BF06019749F460915C053A
:10411000672560935C0590E080E00E940D0B809124
:104120001A0390911B03449708F0C1C180911003BA
:104130009091110306970CF4BAC18091AC028111E1
:10414000B6C180911703811112C084E292E00E94EF
:10415000BF06019709F096C17092AC0288EA91E01F
:104160000E94CC0780911703882309F4A0C186E43C
:1041700092E00E94BF06019709F05CC27092AC0207
:1041800082EB91E00E94CC0792C122E9C21623E0A3
:10419000D206E104F10409F44DCFCFCEFCEACF16EC
:1041A000F1E0DF06E104F10409F084CF62E085E08C
:1041B0000E941A01811152C086E00E940C01082F52
:1041C00087E00E940C01182F66E085E00E941A012A
:1041D000882309F453C06091B5027091B6028091B2
:1041E000B7029091B8029B01AC010E94D3241B013D
:1041F0002C01612F70E0762F662766277370600FA1
:10420000711D072E000C880B990B0E94742420E06E
:1042100030E040E05DE30E94D32420E030E040E85D
:1042200051E40E9424269B01AC010E9425269B019B
:10423000AC01C201B1010E9491261B012C0120E0BA
:1042400030E0A9010E946D2487FD13C02092B102C5
:104250003092B2024092B3025092B40290ECC9166E
:1042600095E0D906E104F10409F03FC0709206031D
:1042700047CF57FA509457F85094E8CF1092B102B4
:104280001092B2021092B3021092B402E7CF909251
:1042900011038092100334CF88E6C81683E0D80655
:1042A000E104F10409F037C283E00E940C01182FE9
:1042B00084E00E940C0190E0982F8827882797704F
:1042C000810F911D9C012E5F37402230310508F08F
:1042D00035C21092AD021092AE021092AF0210924F
:1042E000B0020ECF7092D9020BCFE6E6CE16E3E015
:1042F000DE06E104F10409F094C0E090EB0502EE63
:1043000012E0F12CF8E0FE1550F0EF1441F08F2D83
:104310000E940C01F80181938F01F394F3CF309147
:10432000E4028091DB0230FB84F931FB85F9932FA5
:10433000969596959295990F990F907C8F73892BEE
:104340008093DB029091DC022091E6029E7F20FBAD
:1043500091F9422F440F4C71892F837E9091E7028F
:10436000842B95FB85F937FB332730F930FB86F931
:1043700096FB87F98093DC02991F9927991F8091FA
:10438000E802382F330F392B982F991F9927991F3F
:104390008091E9028170880F3093DD02982B809123
:1043A000DE028C7F27FB332730F9892B30FB82F923
:1043B000877F8F7E8093DE029091E50293708091DB
:1043C000DF02911127C08F7C8093DF028091DF0292
:1043D000982F92959370392F3370807F432F440F1D
:1043E000440F832B842B9295990F990F907C8F7398
:1043F000892B8093DF028091E0028E7F25FB81F97B
:1044000024FB82F99091E302907F8F70892B809337
:10441000E00276CE913019F48F7C8061D5CF806335
:10442000D3CFFAE8CF16F3E0DF06E104F104A1F4FC
:10443000E090EB0502EF12E0F12C28E02E1508F4D5
:104440005FCEEF1409F45CCE8F2D0E940C01F801B1
:1044500081938F01F394F1CFF8E8CF16F2E0DF06F5
:10446000E104F10409F04CCE67E082E00E941A01F9
:10447000182F66E082E00E941A01110F182B10938A
:10448000BE023ECE85E392E00E94BF06019709F48A
:1044900063CE88E692E00E94BF06019709F45CCEE5
:1044A00089E792E00E94BF06019709F455CE60911A
:1044B000AC028BE495E00E94D10680911A039091A2
:1044C0001B0301970F9718F5809114039091150322
:1044D0000397ECF4C090AD02D090AE02E090AF0232
:1044E000F090B00220E030E0A901C701B6010E94BF
:1044F0006D2487FFB5C020E030E040E05FE3C701F6
:10450000B6010E9424260E94E4080E94A40680911D
:10451000140390911503039744F060E070E0CB0121
:104520000E94E40880E00E94A40680911A03909102
:104530001B03419708F077C020E030E0A9016091AB
:10454000AD027091AE028091AF029091B0020E94D4
:104550006D2487FD05C08091C302882309F463C0E0
:104560008CEB91E00E946B0760911A0370911B0322
:1045700090E080E04AE00E94880781EC91E00E9490
:104580006B076091AD027091AE028091AF02909185
:10459000B00242E00E94080888EC91E00E946B079C
:1045A00090E080E00E94D80789ED91E00E946B07BF
:1045B00080911403909115030E94D80785EE91E035
:1045C0000E946B0701E010E020E030E0A90160915B
:1045D000AD027091AE028091AF029091B0020E9444
:1045E0006D2487FD02C010E000E0C8010E94D807DA
:1045F0008EEE91E00E946B0790E080E00E94D80769
:1046000081E092E00E946B0790E080E00E94D80772
:1046100083E192E00E946B078091C30290E00E94C8
:10462000D8070E9478078091C30584FF2AC01092A2
:10463000B902A1CB87E592E00E94BF06019709F479
:104640009DCD8AE892E00E94BF06019709F496CDBD
:104650008BE992E00E94BF06019709F028CF8ECD2A
:1046600020E030E0A901C701B6010E9439271816E1
:104670000CF04DCF60E070E0CB010E94E40880E0D8
:1046800044CF80FFD4CF0E9478020091C8051091DA
:10469000C9052091CA053091CB05601B710B820BB7
:1046A000930B653671058105910508F4C0CF0E9412
:1046B0007802693873418105910508F4B8CF80917B
:1046C0001603882309F4B3CF809119038111AFCF6A
:1046D0007092B90250CB87EE90E00E94B3034AE09B
:1046E000C301B2010E9488070E94780769E170E067
:1046F00080E090E00E9446029FEF491A590A690A39
:10470000790AE3E34E1651046104710411F00C942C
:104710002C1A0C943A1BFCE8CF16F5E0DF06E104F6
:10472000F10409F4DFCD2CE8C21624E0D206E1043E
:10473000F10409F093CD7092CC02E2CCBC01990F48
:10474000880B990B0E9474242AE037ED43EA5BE35F
:104750000E94D3242DE33AE047EE50E40E94242641
:104760006093AD027093AE028093AF029093B0025B
:10477000C7CC60E082E190E00E940D0B0C946B1BB3
:104780008F929F92AF92BF92CF92DF92EF92FF9261
:10479000CF93DF93EC01688179818A819B816115D8
:1047A00071058105910521F464E279ED8BE597E0CF
:1047B0002DE133EF41E050E00E94A72549015A0165
:1047C0009B01AC01A7EAB1E40E94C6256B017C0104
:1047D000ACEEB4EFA50194010E94D425C60ED71EFD
:1047E000E81EF91EF7FE06C081E0C81AD108E108EC
:1047F00080E8F80AC882D982EA82FB82C701B60142
:104800009F77DF91CF91FF90EF90DF90CF90BF9097
:10481000AF909F908F9008958F929F92AF92BF928A
:10482000CF92DF92EF92FF9260911C0170911D0177
:1048300080911E0190911F016115710581059105FF
:1048400021F464E279ED8BE597E02DE133EF41E06F
:1048500050E00E94A72549015A019B01AC01A7EA3B
:10486000B1E40E94C6256B017C01ACEEB4EFA5015A
:1048700094010E94D425C60ED71EE81EF91EF7FE2D
:1048800006C081E0C81AD108E10880E8F80AC092A1
:104890001C01D0921D01E0921E01F0921F01C70180
:1048A000B6019F77FF90EF90DF90CF90BF90AF90D1
:1048B0009F908F90089560931C0170931D018093C9
:1048C0001E0190931F010895FB01DC0102C00590B9
:1048D0000D9241505040D8F708950E94AF2408F43B
:1048E00081E00895E89409C097FB3EF49095809587
:1048F000709561957F4F8F4F9F4F9923A9F0F92FA6
:1049000096E9BB279395F695879577956795B79523
:10491000F111F8CFFAF4BB0F11F460FF1BC06F5F09
:104920007F4F8F4F9F4F16C0882311F096E911C01B
:10493000772321F09EE8872F762F05C0662371F03C
:1049400096E8862F70E060E02AF09A95660F771F50
:10495000881FDAF7880F9695879597F90895990F2C
:104960000008550FAA0BE0E8FEEF16161706E80739
:10497000F907C0F012161306E407F50798F0621B5A
:10498000730B840B950B39F40A2661F0232B242B2F
:10499000252B21F408950A2609F4A140A6958FEF4E
:1049A000811D811D08950E94E6240C9457250E94C4
:1049B000492538F00E94502520F0952311F00C94E1
:1049C00040250C94462511240C948B250E946825C3
:1049D00070F3959FC1F3950F50E0551F629FF00152
:1049E000729FBB27F00DB11D639FAA27F00DB11D6B
:1049F000AA1F649F6627B00DA11D661F829F2227F4
:104A0000B00DA11D621F739FB00DA11D621F839F7A
:104A1000A00D611D221F749F3327A00D611D231F50
:104A2000849F600D211D822F762F6A2F11249F579E
:104A300050409AF0F1F088234AF0EE0FFF1FBB1FA1
:104A4000661F771F881F91505040A9F79E3F510560
:104A500080F00C9440250C948B255F3FE4F3983E46
:104A6000D4F3869577956795B795F795E7959F5F0A
:104A7000C1F7FE2B880F911D9695879597F908959C
:104A800097F99F6780E870E060E008959FEF80EC01
:104A9000089500240A9416161706180609060895A4
:104AA00000240A9412161306140605060895092E0A
:104AB0000394000C11F4882352F0BB0F40F4BF2B79
:104AC00011F460FF04C06F5F7F4F8F4F9F4F0895B9
:104AD00057FD9058440F551F59F05F3F71F04795AF
:104AE000880F97FB991F61F09F3F79F08795089594
:104AF000121613061406551FF2CF4695F1DF08C0B3
:104B0000161617061806991FF1CF869571056105CF
:104B100008940895E894BB2766277727CB0197F977
:104B20000895F999FECF92BD81BDF89A992780B575
:104B30000895262FF999FECF1FBA92BD81BD20BDE1
:104B40000FB6F894FA9AF99A0FBE01960895052EB9
:104B500097FB1EF400940E94BE2557FD07D00E94CB
:104B6000D92507FC03D04EF40C94BE2550954095F2
:104B7000309521953F4F4F4F5F4F08959095809509
:104B8000709561957F4F8F4F9F4F08950E94FB2531
:104B9000A59F900DB49F900DA49F800D911D112491
:104BA0000895B7FF0C94C6250E94C625821B930B5F
:104BB0000895A1E21A2EAA1BBB1BFD010DC0AA1F5E
:104BC000BB1FEE1FFF1FA217B307E407F50720F076
:104BD000A21BB30BE40BF50B661F771F881F991FF1
:104BE0001A9469F760957095809590959B01AC013A
:104BF000BD01CF010895A29FB001B39FC001A39F43
:104C0000700D811D1124911DB29F700D811D112405
:104C1000911D0895AA1BBB1B51E107C0AA1FBB1F12
:104C2000A617B70710F0A61BB70B881F991F5A9538
:104C3000A9F780959095BC01CD010895EE0FFF1F57
:104C40000590F491E02D09945058BB27AA270E94A3
:104C50003C260C9457250E94492538F00E94502587
:104C600020F039F49F3F19F426F40C9446250EF4F5
:104C7000E095E7FB0C944025E92F0E94682558F346
:104C8000BA17620773078407950720F079F4A6F531
:104C90000C948A250EF4E0950B2EBA2FA02D0B0153
:104CA000B90190010C01CA01A0011124FF27591B71
:104CB00099F0593F50F4503E68F11A16F040A22F77
:104CC000232F342F4427585FF3CF469537952795E8
:104CD000A795F0405395C9F77EF41F16BA0B620BE7
:104CE000730B840BBAF09150A1F0FF0FBB1F661F2E
:104CF000771F881FC2F70EC0BA0F621F731F841F71
:104D000048F4879577956795B795F7959E3F08F096
:104D1000B0CF9395880F08F09927EE0F9795879558
:104D200008950E94A5260C9457250E94502558F0FE
:104D30000E94492540F029F45F3F29F00C9440255A
:104D400051110C948B250C9446250E94682568F31C
:104D50009923B1F3552391F3951B550BBB27AA2734
:104D600062177307840738F09F5F5F4F220F331F6E
:104D7000441FAA1FA9F335D00E2E3AF0E0E832D036
:104D800091505040E695001CCAF72BD0FE2F29D039
:104D9000660F771F881FBB1F261737074807AB070B
:104DA000B0E809F0BB0B802DBF01FF2793585F4F80
:104DB0003AF09E3F510578F00C9440250C948B25D9
:104DC0005F3FE4F3983ED4F3869577956795B79562
:104DD000F7959F5FC9F7880F911D9695879597F96D
:104DE0000895E1E0660F771F881FBB1F62177307E6
:104DF0008407BA0720F0621B730B840BBA0BEE1FFB
:104E000088F7E09508950E940A276894B1110C94E0
:104E10008B2508950E94702588F09F5798F0B92F30
:104E20009927B751B0F0E1F0660F771F881F991FDF
:104E30001AF0BA95C9F714C0B13091F00E948A25D2
:104E4000B1E008950C948A25672F782F8827B85FE2
:104E500039F0B93FCCF3869577956795B395D9F737
:104E60003EF490958095709561957F4F8F4F9F4F41
:104E700008950E94AF2408F48FEF08950E94AF2494
:104E8000880B990B0895FB01DC0102C001900D9283
:0C4E900041505040D8F70895F894FFCF2F
:104E9C00C502C5020000070000000000000E610002
:104EAC001C00001C00001C00001C00000100000085
:104EBC00304050A10F649C0A9C1080015A100002D3
:104ECC005089C379BFDBE911468669B69B29159CCD
:104EDC00450D3A00FE0235001A034700D8020700C0
:104EEC00510719009407000E71B801010104010665
:104EFC000107010801030114000000006603C6024B
:104F0C00F302CE032403020316030D0A006E616E36
:104F1C0000696E66006F76660057726974696E6719
:104F2C00445443746F454550524F4D004D435020EF
:104F3C0053744D64653A2000427265616B696E670B
:104F4C004600427265616B696E6752006B6D683A20
:104F5C0000204143433A20002062726F6B6520743D
:104F6C006F20306B6D683A20002067617350656468
:104F7C00616C3A200020646563656C3A20002C203B
:104F8C0053746F7070696E675669614550423A2070
:104F9C00002053746F70707065645669614550429F
:104FAC003A20002072657143437475726E4F6E3AED
:024FBC002000D3
:00000001FF
