:100000000C94DF000C9410170C94E9160C94070163
:100010000C9407010C9407010C9407010C94070140
:100020000C9407010C9407010C9407010C94070130
:100030000C9407010C9407010C9407010C94070120
:100040000C949F160C9407010C945D170C943717B1
:100050000C9407010C9407010C9407010C94070100
:100060000C9407010C94070172657120627265613E
:100070006B20666F726365206F7574206F662072E7
:10008000616E676520616674657220636F6E766568
:100090007273696F6E3A20007265712062726561D9
:1000A0006B20666F726365206F7574206F662072B7
:1000B000616E67653A200052657175657374656499
:1000C00020627265616B20666F7263652068617380
:1000D000206265656E206F7574206F662072616E98
:1000E000676521210020004D4350204572723A205F
:1000F000004550422C204C65747320676F0020002F
:1001000020003A200053656E643A203078000000E9
:100110000000230026002900000000002400270022
:100120002A0000000000250028002B00040404041D
:100130000404040402020202020203030303030391
:10014000010204081020408001020408102001026E
:10015000040810200000000800020100000304074A
:1001600000000000000000003536443930374550AB
:10017000422020312E3020455042205043424550ED
:10018000422050434220202020563031523803492B
:100190000F2C404A3532374E4F4E452045504220B5
:1001A00050434231352E30362E3232323235362DF2
:1001B0002D2D2D5620312E30202020008F17112478
:1001C0001FBECFEFD8E0DEBFCDBF12E0A0E0B1E0B0
:1001D000E4E7FEE402C005900D92A232B107D9F720
:1001E00026E0A2E2B2E001C01D92A131B207E1F720
:1001F00010E0CFEDD0E004C02197FE010E940A2656
:10020000CE3DD107C9F70E9470190C9438270C9481
:1002100000008CBD9DBD08959091E205993040F499
:10022000891730F4E82FF0E0E452FA4F87810895FF
:1002300080E00895CF93C62F0E940C0190E002C089
:1002400095958795CA95E2F78170CF9108958F9221
:100250009F92AF92BF92CF92DF92EF92FF92209146
:10026000060585E5282750E040E090E030E067E0B3
:1002700070E0812C912C54018394FB01E41BF50B5D
:100280007501640104C0CC0CDD1CEE1CFF1CEA955A
:10029000D2F7F901042E02C0F595E7950A94E2F72A
:1002A000E0FF25C09C294F5F5F4F4830510529F77B
:1002B000E92FE295EF709F709E0FE92FE295EF70A6
:1002C0009F70E90FF0E0E35BFB4F8081820F932F7B
:1002D000911D9695982F882797958795FF90EF9079
:1002E000DF90CF90BF90AF909F908F900895C09473
:1002F0009C21D9CF90917F0490930F01AEE3B5E09C
:100300009C9123E0929FF0011124E45FFE4F8483CF
:10031000658346839F5F9C930895482F692F86E3EA
:1003200090E00C947A0143ED61E085E290E00C945A
:100330007A01833081F028F4813099F08230A9F07D
:1003400008958730A9F08830C9F08430B1F48091E5
:1003500080008F7D03C0809180008F778093800024
:10036000089584B58F7784BD089584B58F7DFBCFC4
:100370008091B0008F778093B00008958091B00095
:100380008F7DF9CF1F93CF93DF93282F30E0F901B2
:10039000EC5AFE4F8491F901E05CFE4FD491F901D3
:1003A000E45DFE4FC491CC23A9F0162F81110E9469
:1003B0009901EC2FF0E0EE0FFF1FEE5DFE4FA591CF
:1003C000B4918FB7F894EC91111108C0D095DE2349
:1003D000DC938FBFDF91CF911F910895DE2BF8CF73
:1003E000CF93DF9390E0FC01E05CFE4F2491845DAD
:1003F0009E4FFC0184918823D1F090E0880F991FD3
:10040000FC01E85EFE4FA591B491FC01EE5DFE4F4C
:10041000C591D491623071F49FB7F8943C91822FCA
:10042000809583238C93E8812E2B28839FBFDF91B7
:10043000CF9108958FB7F894EC912E2B2C938FBF0A
:10044000F6CF3FB7F8948091030390910403A091F5
:100450000503B091060326B5A89B05C02F3F19F0F0
:100460000196A11DB11D3FBFBA2FA92F982F882734
:10047000BC01CD01620F711D811D911D42E0660F0F
:10048000771F881F991F4A95D1F708958F929F92E1
:10049000AF92BF92CF92DF92EF92FF924B015C013D
:1004A0000E9421026B017C010E9421026C197D09CE
:1004B0008E099F09683E734081059105A8F321E0EC
:1004C000821A9108A108B10888EEC80E83E0D81EF0
:1004D000E11CF11C81149104A104B10429F7FF90DF
:1004E000EF90DF90CF90BF90AF909F908F90089546
:1004F0002FB7F8946091FF0270910003809101037F
:10050000909102032FBF08958F929F92AF92BF9256
:10051000CF92DF92EF92FF92CF93DF93EC016B01CA
:10052000F12CE12C88809980AA80BB808C0C9D1CCA
:10053000AE1CBF1C0E947802681579058A059B05D0
:10054000B8F088819981AA81BB81C80ED91EEA1EA4
:10055000FB1E0E9478026C157D058E059F0530F00C
:100560000E947802688379838A839B8381E001C03B
:1005700080E0DF91CF91FF90EF90DF90CF90BF9020
:10058000AF909F908F90089508950895AF92BF9275
:10059000CF92DF92EF92FF920F931F93CF93DF934F
:1005A0006C017B018B01040F151FEB015E01AE187E
:1005B000BF08C017D10759F06991D601ED91FC91A0
:1005C0000190F081E02DC6010995892B79F7C501CD
:1005D000DF91CF911F910F91FF90EF90DF90CF901F
:1005E000BF90AF900895FC01538D448D252F30E0CE
:1005F000842F90E0821B930B541710F0CF96089530
:1006000001970895FC01918D828D981761F0A28D5C
:10061000AE0FBF2FB11D5D968C91928D9F5F9F7322
:10062000928F90E008958FEF9FEF0895FC01918DD8
:10063000828D981731F0828DE80FF11D858D90E045
:1006400008958FEF9FEF0895FC01918D228D892FE2
:1006500090E0805C9F4F821B91098F7399270895CA
:1006600085E293E00E94240321E0892B09F420E035
:10067000822F089580E090E0892B29F00E943003BA
:1006800081110C9400000895FC01A48DA80FB92FCE
:10069000B11DA35ABF4F2C91848D90E001968F73AA
:1006A0009927848FA689B7892C93A089B1898C91C9
:1006B000837080648C93938D848D981306C0028818
:1006C000F389E02D80818F7D80830895EF92FF92E2
:1006D0000F931F93CF93DF93EC0181E0888F9B8D65
:1006E0008C8D98131AC0E889F989808185FF15C01F
:1006F0009FB7F894EE89FF896083E889F989808142
:100700008370806480839FBF81E090E0DF91CF9110
:100710001F910F91FF90EF900895F62E0B8D10E032
:100720000F5F1F4F0F731127E02E8C8D8E110CC0A1
:100730000FB607FCFACFE889F989808185FFF5CFEC
:10074000CE010E944403F1CFEB8DEC0FFD2FF11D84
:10075000E35AFF4FF0829FB7F8940B8FEA89FB8929
:1007600080818062CFCF0F931F93CF93DF938C0153
:10077000D0E0C0E0F801EC0FFD1F6491662341F06A
:1007800085E293E00E946603892B11F02196F2CF57
:10079000CE01DF91CF911F910F910895CF93DF93F9
:1007A000EC01888D8823B9F0AA89BB89E889F98989
:1007B0008C9185FD03C0808186FD0DC00FB607FCBE
:1007C000F7CF8C9185FFF2CF808185FFEDCFCE01F1
:1007D0000E944403E9CFDF91CF91089508958EBD23
:1007E00000000DB407FEFDCF8EB50895FF920F9364
:1007F0001F93CF93DF93C82FF62E172F042F80E57A
:1008000091E00E94090160E08091FF050E94C20111
:1008100083E00E94EF038C2F0E94EF03CF2DD12F96
:100820000C0F1D2F111DC017D10729F080E00E9469
:10083000EF038993F8CF61E08091FF05DF91CF91BD
:100840001F910F91FF900C94C201FF920F931F9381
:10085000CF93DF93EC01F62E042F122F80E591E069
:100860000E94090160E088890E94C20185E00E941F
:10087000EF038F2D0E94EF03802F0E94EF03812F43
:100880000E94EF0361E08889DF91CF911F910F9162
:10089000FF900C94C201DF92EF92FF920F931F938F
:1008A000CF93DF937C01C62FD42E152F022F80E526
:1008B00091E00E94090160E0F70180890E94C20175
:1008C00082E00E94EF038C2F0E94EF03CD2DD12FE9
:1008D0000C0F1D2F111DC017D10721F089910E9407
:1008E000EF03F9CF61E0F7018089DF91CF911F918C
:1008F0000F91FF90EF90DF900C94C201CF93DF93A4
:1009000000D000D0CDB7DEB71C821B82613099F4D5
:1009100098E09A83198224E0AE014F5F5F4F682F01
:100920008FEE95E00E944B040F900F900F900F9068
:10093000DF91CF9108951A82EDCF0F931F93CF933C
:10094000DF93EC01062F142F80E591E00E9409014E
:1009500060E088890E94C20182E00E94EF03802F3C
:100960000E94EF03812F0E94EF0361E08889DF91ED
:10097000CF911F910F910C94C2011F93CF93DF93DE
:10098000EC01162F80E591E00E94090160E0888962
:100990000E94C20183E00E94EF03812F0E94EF03B7
:1009A00080E00E94EF03182F61E088890E94C20155
:1009B000812FDF91CF911F9108952F923F924F92F7
:1009C0005F926F927F928F929F92AF92BF92CF92DF
:1009D000DF92EF92FF920F931F93CF93DF9300D09C
:1009E00000D0CDB7DEB77C01FC0141835283638325
:1009F0007483168610822583F801DC011696C801DF
:100A000008965A2ECB2E21912D93E817F907D9F786
:100A1000B12CA12C20902001309021014090220186
:100A20004E01F4E08F0E911C29823A824B82CE0156
:100A300001963C01D82E072DF30111913F01612F42
:100A4000C7010E94BD0483FD0DC01F5F80E0FFEF62
:100A5000AF1ABF0A823061F482E3A816B10421F70D
:100A600096E071C08614970439F710E082E0EFCF6A
:100A700092E3A916B104A1F3F7012581452D5C2D60
:100A800065E0610FC7010E944B04F7018685813044
:100A900019F4858180648583F701458164E0610FE5
:100AA000C7010E949D04F70181819281A381B481D5
:100AB00020812130B1F58C839B83CD01AA27BB27F0
:100AC000282F23702860382F330F330F330F307ED9
:100AD000232B2A8335E0969587953A95E1F789830C
:100AE00024E04D2D502F612FC7010E944B0411505F
:100AF00028E048E0612FC7010E942504D12CC12CB9
:100B0000FFEFCF1ADF0A612FC7010E94BD04982FA3
:100B1000987083FF14C082E3C816D10489F797E068
:100B200012C09C0193E0369527959A95E1F72983A9
:100B30008295880F807E8A831C821B82D1CFE2E35C
:100B4000CE16D10461F3892F0F900F900F900F9064
:100B5000DF91CF911F910F91FF90EF90DF90CF9099
:100B6000BF90AF909F908F907F906F905F904F90CD
:100B70003F902F9008950F931F93CF93DF9300D052
:100B800000D0CDB7DEB7182F1092EF051092F00508
:100B90001092F1051092F2051092F30544E0BE01A7
:100BA0006F5F7F4F0E94F6032A81898138E0839F1F
:100BB000C0011124422F50E065E0559547956A9594
:100BC000E1F7840F951F092E000CAA0BBB0B809335
:100BD000F0059093F105A093F205B093F30523FF80
:100BE00029C032E0880F991FAA1FBB1F3A95D1F781
:100BF0002370820F911DA11DB11DBA2FA92F982F0F
:100C000088272B81820F911DA11DB11DBA2FA92FFD
:100C1000982F88272C81820F911DA11DB11D8093D3
:100C2000F0059093F105A093F205B093F30581E0F0
:100C30008093EF056FEF610F8FEE95E00E94BD048A
:100C4000082F64E0610F8FEE95E00E94BD0403FF62
:100C500016C091E09093FD05482F4F704093F40526
:100C600065EF75E085E0810F0E94F6030F900F900D
:100C70000F900F90DF91CF911F910F9108951092D7
:100C8000FD05EACFCF93DF93C82F0E947802D62FBD
:100C90002C2F40EE6FE08FEE95E00E9425046EE071
:100CA0008FEE95E00E94BD04807EC81749F00E9437
:100CB00078026D1B693C60F381E0DF91CF9108956C
:100CC00080E0FBCFCF93DF93C82F6EE08FEE95E0EF
:100CD0000E94BD04807E803239F5C03229F16BE27A
:100CE0008FEE95E00E94BD04D82FD07486FD07C01A
:100CF00020E440E46BE28FEE95E00E94250420E4BE
:100D000040E46CE28FEE95E00E94250480E60E94AC
:100D10004206811115C0D11107C020E040E46BE20A
:100D20008FEE95E00E94250420E040E46CE28FEE17
:100D300095E00E9425048C2FDF91CF910C94420600
:100D400081E0DF91CF91089520911103309112033A
:100D50009091EE022333310538F42091090330914C
:100D60000A03243F314028F49D7F9093EE0280E0F7
:100D7000089580FB91F99093EE0281E00895FC01C3
:100D8000278530892115310539F0908192FD06C003
:100D9000108A178694609083C901089530E020E09E
:100DA000FBCF8F929F92AF92BF92CF92DF92EF9242
:100DB000FF921F93CF93DF93EC01162F888160FB86
:100DC00084F9888381FB992790F9462F491B550B9D
:100DD0009A014F8558894217530731F0961721F031
:100DE000388B2F878B7F88838881817081131DC00A
:100DF00081E0812798136DC00E947802CD84DE8443
:100E0000F12CE12C8D809E80AF80B884681979091F
:100E10008A099B09C616D706E806F90630F08881CC
:100E200083FD03C08062886088838881817081131C
:100E300021C0988191FB332730F921E02827321314
:100E400019C080FB91F9988319861A861B861C8627
:100E50000E94780269837A838B839C83DF91CF9190
:100E60001F91FF90EF90DF90CF90BF90AF909F9039
:100E70008F90089591E09827911313C098819695CB
:100E800091709813EBCF0E9478026D837E838F83DD
:100E900098879881892F8D7F90FF82608F7D8883CE
:100EA000DDCF8113DBCF9881969591709813D6CFC3
:100EB0000E947802C980DA80EB80FC806C197D0981
:100EC0008E099F0969877A878B879C878881877FAE
:100ED000E6CF812FAECFFC0101900020E9F73197DA
:100EE000AF01481B590BBC0185E293E00C94C6028C
:100EF0008AE791E00C946B07CF93DF930E94B303D2
:100F0000EC010E9478078C0F9D1FDF91CF9108950F
:100F10008F929F92AF92BF920F931F93CF93DF93C5
:100F2000CDB7DEB7A1970FB6F894DEBF0FBECDBF29
:100F300019A2423008F44AE08E010F5D1F4F842E43
:100F4000912CB12CA12CA50194010E94C525E62F5E
:100F5000B901CA01EA30F4F4E05DD801EE938D01E5
:100F6000232B242B252B79F790E080E0109719F0A4
:100F7000CD010E946B07A1960FB6F894DEBF0FBE9D
:100F8000CDBFDF91CF911F910F91BF90AF909F90F8
:100F90008F900895E95CE1CFCF93DF930E946B07B8
:100FA000EC010E9478078C0F9D1FDF91CF9108956F
:100FB000CF92DF92EF92FF92CF93DF936C01990F64
:100FC000EE08FF08F7FE19C06DE285E293E00E948B
:100FD0006603EC0166277727CB016C197D098E0922
:100FE0009F094AE00E9488078C0F9D1FDF91CF91D7
:100FF000FF90EF90DF90CF9008954AE0C701B601CF
:10100000DF91CF91FF90EF90DF90CF900C94880705
:101010004F925F926F927F928F929F92AF92BF9208
:10102000CF92DF92EF92FF920F931F93CF936B01BA
:101030007C01742EAC019B010E942A27882399F021
:101040008DE791E0CF911F910F91FF90EF90DF908E
:10105000CF90BF90AF909F908F907F906F905F9058
:101060004F900C946B0746015701E894B7F82FEFA7
:101070003FEF4FE75FE7C501B4010E942A278111C6
:101080000DC02FEF3FEF4FE75FE7C501B4010E94AE
:10109000592418161CF481E891E0D4CF2FEF3FEFCC
:1010A0004FE75FE4C701B6010E94252718161CF41C
:1010B00085E891E0C7CF2FEF3FEF4FE75FECC70127
:1010C000B6010E94592487FDF3CF20E030E0A9014A
:1010D000C701B6010E94592410E000E087FF0AC052
:1010E0006DE285E293E00E9466038C01F7FAF094CA
:1010F000F7F8F094C0E060E070E080E09FE37C16D9
:1011000041F020E030E040E251E40E947D26CF5FD4
:10111000F6CFA70196010E9411262B013C010E94E7
:10112000F6264B015C014AE00E9488077C01E00E34
:10113000F11ECC23C1F1C501B4010E945E249B01C4
:10114000AC01C301B2010E9410264B015C016EE2AA
:1011500085E293E00E946603E80EF91EC15018F183
:1011600020E030E040E251E4C501B4010E94BF2418
:101170002B013C010E94F6264B01B12CA12C4AE028
:10118000C501B4010E948807E80EF91EC501B4012B
:101190000E945E249B01AC01C301B2010E94102693
:1011A0004B015C01DBCFC701CF911F910F91FF90E5
:1011B000EF90DF90CF90BF90AF909F908F907F90F7
:1011C0006F905F904F9008958F929F92AF92BF92D1
:1011D000CF92DF92EF92FF926B017C01809122020D
:1011E000882321F087EB90E00E947C072BED39EFFC
:1011F0004EEF50ECC701B6010E94592487FD0AC08A
:1012000022E03BE247E850E4C701B6010E942527EF
:10121000181604F588E990E00E94B30342E0C70184
:10122000B6010E9408080E94780760E070E0CB01D8
:101230000E94E40880E00E94A40681E080932202DC
:1012400080E0FF90EF90DF90CF90BF90AF909F90A5
:101250008F9008952BED39EF4EEF50E4C701B601A2
:101260000E94112626EA3BE944E45DE30E947D26C4
:101270004B015C0120E030E04FE753E40E9425275A
:1012800018164CF020E030E0A901C501B4010E941D
:10129000592487FF03C088E690E0BECFC501B401A2
:1012A0000E94F6266093ED0281E0CBCFAF92BF9211
:1012B000DF92EF92FF920F931F93CF93DF93EC0196
:1012C000D62E8A012223C9F07A01A62EB12CC7019D
:1012D000801B910B8A159B0574F485EE90E00E94AB
:1012E000B303F70161917F0170E090E080E040E19D
:1012F0000E948807ECCF0E947807AE0170E060E0A2
:101300002D2D8FEE95E00E94DD04DF91CF911F918E
:101310000F91FF90EF90DF90BF90AF9008959F9254
:10132000AF92BF92CF92DF92EF92FF920F931F93F3
:10133000CF93DF93CDB7DEB728970FB6F894DEBF13
:101340000FBECDBF082F6B01942E10E0A82EB12C3C
:10135000CE0101967C011017C0F5E12FF0E0C50128
:101360008E1B9F0B0897ECF4602F611B90E180911E
:10137000FF0421E0280F2093FF048F70892B8983BD
:10138000EC0DFD1DD701262F30E0CD018E199F09F0
:10139000821793074CF4819111968C9311971196B3
:1013A000F4CF67E090E2E3CF6F5F292DA701809132
:1013B0002E0590912F050E94560961E070E080E0B3
:1013C00090E00E944602195FC6CF28960FB6F894A7
:1013D000DEBF0FBECDBFDF91CF911F910F91FF9068
:1013E000EF90DF90CF90BF90AF909F900895CF93F4
:1013F000DF9300D000D000D0CDB7DEB71A821982BB
:1014000093E09B839FE79C838D836E83EFEFF4E0F3
:10141000808191E0980F90838F708061898320E0B4
:10142000AE014F5F5F4F66E080912E0590912F05D2
:101430000E94560926960FB6F894DEBF0FBECDBFA8
:10144000DF91CF910895FB01823020F461E180812A
:101450000C94F7090C948F09EFEFF4E0808191E090
:10146000980F90838F70806180937B0483E08093DA
:101470007D04EEE7F4E080818064808320E04BE728
:1014800054E066E080912E0590912F050C9456094A
:10149000282F9091FF0481E0890F8093FF049F70B3
:1014A000906190937B0410927C0490917E049064F0
:1014B00090937E0480912E0590912F05211109C0F3
:1014C00024E020937D0420E04BE754E067E00C9497
:1014D000560935E030937D042093820420E04BE7E9
:1014E00054E068E0F4CFCF93DF93D82F61E070E051
:1014F00080E090E00E944602D03909F465C008F00F
:1015000049C0D73809F45CC050F4DC3709F46AC02C
:10151000C8E063EB71E0DE3751F0C0E031C0D9388C
:1015200009F474C0C5E067E971E0DC38B1F7E09117
:10153000FC04AE2FB0E0A454BB4F81EF8C9382E04B
:101540008E0F8093FC04EF5FF0E0E454FB4FD083F8
:10155000C63038F0FB019081911103C06B5F7F4F63
:10156000C5504C2F50E090E084549B4FD03909F087
:1015700051C00E942F278091FC048C0F8093FC04A3
:1015800061E070E080E090E00E9446028C2FDF91E5
:10159000CF910895D33A91F140F4D13999F1C7E050
:1015A00067E771E0D73919F2B8CFDA3AF9F0DF3DE1
:1015B00009F1D53A09F0B1CFC6E06CE871E0B7CFD8
:1015C000CBE068E671E0B3CFADE5B4E0E4E1F3E091
:1015D0008D91819383E0E532F807D1F7C1E164E1B1
:1015E00073E0A5CFC7E16CE971E0A1CFC4E063E986
:1015F00071E09DCFC1E062E971E099CFC3E069E895
:1016000071E095CFCBE06EE771E091CFC4E063E786
:1016100071E08DCF0E945024AECF1F93CF93DF9304
:10162000EC01162F0E947D25181739F0612FCE018D
:10163000DF91CF911F910C948525DF91CF911F9160
:101640000895EF92FF920F931F93CF93DF9389E852
:1016500091E00E94CC0703ED13E08DEEE82E83E0CD
:10166000F82EC0E3D0E0F80161810E5F1F4FCE017C
:101670000E940D0BF80132976081CE0101960E9405
:101680000D0BF70161917F01CE0102960E940D0BB7
:101690002396C735D10539F7DF91CF911F910F916F
:1016A000FF90EF9008958091D303882341F010922A
:1016B000D4031092D3030E94210B81E0089580E0AF
:1016C00008951F93CF93DF93EC01172F01960E948B
:1016D0000D0B612FCE01DF91CF911F910C940D0B5B
:1016E0000C947D251F93CF93DF93EC0101960E940C
:1016F000700B182FCE010E94700B90E0982F882756
:10170000810F911DDF91CF911F91089582E190E0AB
:101710000E94700B8093060581E008954F925F92BE
:101720006F927F928F929F92AF92BF92CF92DF92F1
:10173000EF92FF920F931F93CF93DF9300D000D0CF
:1017400000D01F92CDB7DEB70E947802009130041E
:10175000109131042091320430913304601B710BDD
:10176000820B930B693B7B408105910520F48091AE
:101770002E04811110C010922E04109211051092A7
:1017800010058FEF9FEF9093130580931205109231
:1017900034041092350480914704882349F064ECA6
:1017A00079E088E494E00E94840281111092470459
:1017B0008091DE059091DF05A091E005B091E105F3
:1017C000893733E09307A105B10561F08A3144E020
:1017D0009407A105B10531F08A33E2E09E07A10527
:1017E000B105A9F4E0912C05F0912D05EE0FFF1F36
:1017F000EE0FFF1FE65EFA4F208131812E3F32400F
:1018000031F422E030E030932D0520932C05873110
:1018100024E09207A105B10531F0873432E0930747
:10182000A105B105A9F4E0912C05F0912D05EE0F6D
:10183000FF1FEE0FFF1FE65EFA4F20813181283D2A
:10184000324031F421E030E030932D0520932C0517
:101850008531E4E09E07A105B10531F08533F2E062
:101860009F07A105B105A9F4E0912C05F0912D0584
:10187000EE0FFF1FEE0FFF1FE65EFA4F2081318152
:101880002A31334031F422E030E030932D052093AB
:101890002C058F359640A1F480E00E940C01811147
:1018A0004DC085E00E940C0180935D0486E00E949B
:1018B0000C0180935E0487E00E940C0180935F041A
:1018C0006091070582EC93E00E94D10680910705A4
:1018D000882309F47FC080911005909111058A3BFF
:1018E000934249F48091400561E090E00E940D0B25
:1018F00081E08093070582EC93E00E94BF06019689
:1019000031F48091400560E090E00E940D0BE09082
:10191000E20538E03E1508F4E12CE092720403E79A
:1019200014E06801F12CEF1409F471C08F2D0E94AE
:101930000C01D6018D936D01F394F5CF813019F52B
:101940000E940C018093600482E00E940C0180934D
:10195000610483E00E940C018093620484E00E9491
:101960000C018093630485E00E940C018093640461
:1019700086E00E940C018093650487E00E940C01C0
:10198000809366049DCF823009F09ACF81E00E9457
:101990000C018093670482E00E940C01809368042C
:1019A00083E00E940C018093690484E00E940C0192
:1019B00080936A0485E00E940C0180936B0486E0AA
:1019C0000E940C0180936C0487E00E940C018093BC
:1019D0006D0476CF0E9478020091C3031091C40376
:1019E0002091C5033091C603601B710B820B930BD2
:1019F00000910A0510910B0520910C0530910D0501
:101A0000061717072807390708F065CF6BCF8091B5
:101A1000DE059091DF058115B2E09B0729F4209146
:101A20002F04222309F471C0E0912C05F0912D05BB
:101A3000EE0FFF1FEE0FFF1FE65EFA4F2081318190
:101A40008217930709F0C5C00E94780260933004A2
:101A50007093310480933204909333048091730423
:101A6000982F92959F708F70809300059A3009F09F
:101A7000ECC081111FC0809172048630D9F481EAD4
:101A800089838AE48D83809174048A8380917504AC
:101A90008B83809176048C83809178048E8320E000
:101AA000AE014F5F5F4F66E080912E0590912F054C
:101AB0000E945609809100058330A1F486E0E3E29C
:101AC000F1E0DE01119601900D928A95E1F720E098
:101AD000AE014F5F5F4F66E080912E0590912F051C
:101AE0000E94560980910005883009F072C010925A
:101AF0002E0480910105823009F099C010920105F1
:101B00001092FF041092FE0464C080914C04811175
:101B100017C00E947802611571058105910511F0C9
:101B20000E9447240E94F8232EEF30E040E050E06E
:101B30000E9493256F5F7F4F8F4F9F4F60934C04A0
:101B400090917304E0912C05F0912D05092F10E080
:101B5000DF01AA0FBB1FAA0FBB1FA85EBA4F2D91B2
:101B60003C910217130709F04BC09093FD0480913C
:101B70007404803C71F580917204873051F5809136
:101B80007804909177042091770430917804309311
:101B90002F0520932E05198220ED2A8321E02F8323
:101BA0009B838C83EE0FFF1FEE0FFF1FE65EFA4F45
:101BB000908181819D838E8320E0AE014F5F5F4FD6
:101BC00067E0C80192600E9456091092FE041092CC
:101BD000FF0427960FB6F894DEBF0FBECDBFDF918E
:101BE000CF911F910F91FF90EF90DF90CF90BF901A
:101BF000AF909F908F907F906F905F904F900895DF
:101C00009E3F39F780917504843119F780917604ED
:101C10008F3FF9F6809178048A3A11F08535C9F63C
:101C20000E94530B8823A9F20E942C0AD2CF8091E4
:101C30002E0590912F0528EA298320E0AE014F5F01
:101C40005F4F61E00E9456095BCF9B3009F046C0B0
:101C5000809101058130A1F482E08093010580919B
:101C60002E0590912F0528EA298320E0AE014F5FD1
:101C70005F4F61E00E9456091092FF041092FE042B
:101C8000809105058A3511F58BE9809305058091D2
:101C9000290190912A01A0912B01B0912C018983F7
:101CA0009A83AB83BC838091FF0491E0980F90935B
:101CB000FF048F708061898320E0AE014F5F5F4F2A
:101CC00064E080912E0590912F0569C08B3909F051
:101CD00080CF1092050561E180E02EC19230C1F500
:101CE0008F5F8F708093FE0480910205882381F0BE
:101CF000309172049091BB04A4E7B4E0E92F81E035
:101D00008E0F282F291B2317E0F0E093BB0461CF2F
:101D100081E0809302058091750480930405809191
:101D20007604809303051092BB0489E0815021F46E
:101D300088E08093BB044DCFF80191918F01978388
:101D4000F5CF2D91F0E0E558FB4F2083E82FD7CF5A
:101D5000911128C08F5F982F9F709093FE0430914F
:101D600072044091BB0480E0E42FE80F381749F07B
:101D7000D8012D918D01F0E0E558FB4F20838F5F56
:101D8000F3CFE093BB04E0912E05F0912F05905521
:101D9000998320E0AE014F5F5F4F61E0CF010E9469
:101DA000560917CF913009F014CF709102057111C7
:101DB0000BC09091750490930405909176049093D4
:101DC00003051092BB0490E0E09172046091BB04A3
:101DD000492F50E04E535C4F262F30E02E533C4F9E
:101DE0006F5F9E1708F072C0DA01AF54BF4FFC91CD
:101DF00027543F4FD901FC939F5F4F5F5F4F98304F
:101E000059F76093BB0491E090932E048F5F982F55
:101E10009F709093FE0410917F0420918104809123
:101E20008004D0907D0400917E04713031F41092D2
:101E30000205D090040500910305DD2009F4C9CE08
:101E4000E82EF12CFE2CEE24E20EF11CE0912E0582
:101E5000F0912F059055998320E0AE014F5F5F4FC1
:101E600061E0CF010E945609E0EFE00FE83208F090
:101E700054C7F0E0E25CF04F0C940A266B0F8D160D
:101E80008D168D16C8138D168D168D168C138D1606
:101E9000B50F8D168D168D168D168D168D16311269
:101EA000B80F8D168D168D168D16CF138D168D16B7
:101EB0008D168D168D168D1671108D168D16BC1003
:101EC0001212E115F4150116A314C11527543F4F42
:101ED000D9011C9291CF109236041938E1F4109276
:101EE00035041092340485E0EDE2F1E0DE01119654
:101EF00001900D928A95E1F78091FF0491E0980F8F
:101F00009093FF048F708061898320E0AE014F5F62
:101F10005F4F65E0D6CE163891F48091070567E3F0
:101F2000882349F080913404823020F081E080934E
:101F300035047ACE63E380E10E94F7094ACE8DE74B
:101F4000810F823058F4133819F481E080933604FD
:101F500080913404823070F382E0E9CF61E180E166
:101F60000E94F7091092350434CE61E18AE1E4CF92
:101F7000113F89F583E08093FC0413E0D81209C077
:101F8000809180040E94730A811112C061E382E291
:101F9000D3CFB1E0BD1560F4DA94DA941E5FE12F7F
:101FA000F0E0E558FB4F80810E94730AD110F1CF19
:101FB0001092BC048091FC049EEF980F9093BD0496
:101FC00092E69093BE0440E06CEB74E00E94230A1A
:101FD0001092FC04FECD143009F043C090918004AF
:101FE00089EF890F823028F58091FF0421E0280FC6
:101FF0002093FF048F70806180937B0410937D0495
:1020000080917E04806480937E04109181049730D7
:1020100061F483E190E00E94700B812B8093810436
:1020200020E04BE754E067E04CCE8091410590E022
:10203000F2CF953009F0AACF8091FF0491E0980F7C
:102040009093FF048F70806180937B0410937D04D4
:1020500080917E04806480937E04809181048C6CE6
:10206000DDCF163099F5809180048130C9F020F0E1
:10207000863009F430CE8ACF0E94860B198284E024
:102080008A8382E68B831C831D82809106058E8362
:1020900040E0BE016F5F7F4F86E00E948F0999CDBF
:1020A0008091FF0491E0980F9093FF048F708061FE
:1020B00080937B0484E080937D0480917E0480641F
:1020C00080937E04809181048160A8CF173039F419
:1020D000809180048053823008F4FDCD57CF61E1B8
:1020E00056CF80918004883909F49ECD163009F0CE
:1020F00022C6811120C680910405843009F01BC6D8
:1021000083E08B838FE78C8380E88A838EE28D83E4
:1021100088E78E838091FF0491E0980F9093FF04ED
:102120008F708061898320E0AE014F5F5F4F66E072
:1021300080912E0590912F050E945609809181046F
:1021400080930605887F09F0EAC581E080930F053A
:1021500010920E050E942701BC0180913F0590E07E
:102160000E94610B0E94860B5FCD109207051092B2
:102170000E0566E38EE2E0CE183B09F048C0E1149C
:10218000F10449F440E066E571E082E10E948F09C4
:10219000109236041ECDE7E0EE16E1E0FE0671F582
:1021A00080918204282F30E0322F222780918304EF
:1021B000820F932F911D90931105809310059C0120
:1021C0002D7F2530310509F4B8C521E08A3BF3E2C3
:1021D0009F0709F020E0845691098115934008F487
:1021E00019C1211117C161E181E30E94F7098FEF45
:1021F0009FEF9093110580931005EBCC23E0E2163E
:1022000021E0F20609F406C161E181E395CE1A3BB3
:1022100009F05AC037E0E31631E0F30651F480913B
:10222000120590911305019679F781E00E94480A02
:10223000EBCF83E0E81681E0F80631F72091120534
:102240003091130581E82F3F320709F4E4C0E09094
:102250007F04F09080040091810410917E0410644A
:1022600080911705882329F1809114059091150517
:1022700010927B0429E020937C0410937D04E0926B
:102280007E04F0927F040093800422E8209381046E
:1022900023E02093820490938304809384048FEF3F
:1022A0008093850440E06BE774E08BE00E948F0927
:1022B00090CC46E0429FC001439F900D11248C506A
:1022C0009E4F0E94720BD4CF1B3B09F04DC0A3E080
:1022D000EA16A1E0FA0609F097CFE0901405F09015
:1022E0001505C0901205D090130586E08C9D8001E5
:1022F0008D9D100D1124C8018A509E4F0E94720BB3
:102300008E159F0578F1CD2819F580913504882325
:10231000D1F008EF11E0FF24F394C8010E94720B82
:10232000BC01C80104970E94610BF09216050A5F78
:102330001F4F0C3AB2E01B0781F780E00E94480A69
:102340001092170546CC60E881E30E94F709F8CFA8
:10235000B701C8018C509E4F0E94610B81E08093B1
:102360001605EBCF61E3F0CF193B09F057C081E0D0
:10237000E7E0EE16E1E0FE0609F44DC0F3E0EF16EB
:10238000F1E0FF0609F040CF2091120530911305CE
:10239000809182042F3F3207D9F4282F30E0309308
:1023A0001305209312052E31310554F4A6E08A9FBF
:1023B000C00111248A509E4F0E94720B892B51F547
:1023C0008FEF9FEF909313058093120561E31DCF6C
:1023D00090E0982F882700918304080F192F111D72
:1023E000109315050093140546E0429FC001439FDA
:1023F000900D11248A509E4F0E94720B80179107F6
:1024000020F4909315058093140581E080931605C0
:102410008093170580E00E94480ADBCB143C09F446
:10242000D8CBF2CE183B49F4B7E0EB16B1E0FB068F
:1024300031F4109211051092100582E6ECCFE3E022
:10244000EE16E1E0FE06C9F78FEF9FEF90931305BC
:10245000809312051092150510921405109217051D
:10246000ECCF80917F0480930F018A3709F4C7C0B5
:10247000F0F4833009F496C068F4813009F440C068
:10248000823009F479C010923E0561E181E20E9438
:10249000F709A0C08630B8F790E080E00E948D0177
:1024A00090E080E00E948D0190E080E060C08D3778
:1024B00009F418C180F48B3709F403C18C3719F77C
:1024C0000E9493010E9493010E9493014BE061E0FE
:1024D00088E090E064C08E3709F415C18F3799F613
:1024E0000E9493010E947802CB010E948D010E94FC
:1024F00078020E948D0143ED61E085E290E04FC0DB
:102500004091A90542954170440F809165058295DF
:102510008170480F440F8091760582958170480F35
:10252000440F8091870582958170480F440F8091F8
:10253000980582958170480F440F80911303480FCE
:10254000440F8091BA058295817087958827879579
:102550009091CB0592959170890F480F6FEF80E1B4
:1025600090E00E947A0180911103909112030E94E1
:102570008D0190E080E02CC040910F03440F8091CA
:102580000E03480F440F80910D03880F880F880FAA
:1025900090911003890F480F6FEF80E190E00E9447
:1025A0007A0118C080910B0390910C030E948D0159
:1025B0008091090390910A030E948D01809111037B
:1025C000909112030E948D0180910703909108035E
:1025D0000E948D0190913E05992309F4FACA892F32
:1025E000880F890F92E0980F90930D0141E06CE005
:1025F00071E08C5F0E94230A10923E05EACA809126
:10260000070581113DC060910A0570910B0580910D
:102610000C0590910D0558EE852E53E0952EA12CBA
:10262000B12CA50194010E94C52569010E94780280
:102630000091C3031091C4032091C5033091C603D8
:10264000601B710B820B930BA50194010E94C525A1
:10265000C21AD30A2CE330E0C601B9010E94F62564
:10266000AC01C601841B950BB9010E94F6258CE2D2
:1026700090E00E947A010E9493010E9493012FC072
:1026800083E190E00E94700B182F8091410590E04B
:102690000E94700B212F281B330BC90120910905C3
:1026A000281719062CF44AE560E085E290E0E1CFB6
:1026B0008091080590910E05891B990B0E948D0150
:1026C000DACF0E9493014EE061E088E090E00E9442
:1026D0007A0144E061E088E090E00E947A010E9483
:1026E000930178CF86EE97E00E948D0186E090E01E
:1026F0000E948D018FE090E00E948D0148E366E129
:102700008CE290E04CCF0E9493014EE061E088E0C3
:1027100090E00E947A01B1CF2091D3033091D4038D
:10272000C901880F991F820F931F029690937B0413
:10273000822F880F820F92E0980F90937C0498E587
:1027400090937D0420937E04EFE7F4E002EC13E025
:10275000A8014E5F5F4F0F5F1F4FB801625C73406F
:102760002617370770F0DA0152969C9152979083A2
:1027700051969C919183D8019B969C91928333961C
:10278000E8CF40E06BE774E08C5F0E94230A21CA27
:102790000E94530B811148CA62E284E1CDCB809143
:1027A0003904833020F480910705811109C066E364
:1027B00087E20E94F709109207051092390409CAAE
:1027C000812F8D7F813079F50E94F82360933A0440
:1027D00070933B0480933C0490933D0410927B04DF
:1027E00026E020937C0420917E04206420937D04C5
:1027F00020917F0420937E048C012227332710939D
:102800007F0400938004709381046093820440E00D
:102810006BE774E088E00E948F09809139048F5F34
:1028200080933904D6C9153061F480913404823024
:1028300020F0809135048111C7CF1092340461E1FA
:102840003EC081E01230A9F11430D9F580918204A4
:10285000282F30E0322F222780918304820F932F7C
:10286000911DB0E0A0E040913A0450913B0460918A
:102870003C0470913D04841B950BA60BB70B409153
:102880008004242F30E0322F222740918104420F10
:10289000532F511D70E060E0BA0155274427840F83
:1028A000951FA61FB71F87389E44A105B10531F4B7
:1028B00082E08093340410923904B6C963E387E25E
:1028C0003BCB163009F0B9CF80913404823008F444
:1028D000B4CF80913504882309F4AFCF809182046E
:1028E000282F30E0322F222780918304820F932FEC
:1028F000911DB0E0A0E040913A0450913B046091FA
:102900003C0470913D04841B950BA60BB70B4091C2
:102910008004242F30E0322F222740918104420F7F
:10292000532F511D70E060E0BA0155274427840FF2
:10293000951FA61FB71F8E3D9744A105B10509F04D
:10294000BDCF83E0B6CF80914604811133C0109291
:102950007B048090420490904304A0904404B09083
:10296000450480927C0480917D04806480937D0482
:10297000C0903E04D0903F0410E0812F90E0B0E082
:10298000A0E088159905AA05BB0568F4E12EF12C95
:10299000C7018C0D9D1D0E94700BF701E258FB4F83
:1029A00080831F5FEACF40E06BE774E083E0880D2F
:1029B0000E94230A80914604882309F4DFC0009115
:1029C0003604002309F465C0C0903E04D0903F0453
:1029D000E0904004F09041048091420490914304BF
:1029E000A0914404B091450426013701480E591EB8
:1029F0006A1E7B1E26E0421A510861087108209168
:102A0000400530E04601570184149504A604B7043C
:102A100098F4A4012815390534F0423151056CF4BD
:102A2000821693061CF0433151053CF04FEF841A97
:102A3000940AA40AB40AE8CF00E01091840420911B
:102A40007F042F3001F5209180042E34E1F4409171
:102A50008104242F30E0322F222740918204420F3C
:102A6000532F511D70E060E0C416D506E606F70648
:102A700051F44091830450E070E060E084179507C2
:102A8000A607B70771F11092370467E786E30E9443
:102A9000F7098091360481116DC010E0812F90E01C
:102AA000B0E0A0E04091420450914304609144049E
:102AB0007091450484179507A607B70708F058C01A
:102AC000212F30E0F901E258FB4F80913E049091B4
:102AD0003F0401976081820F931F0E940D0B1F5FBF
:102AE000DDCF20E00697A109B109422F50E070E048
:102AF00060E0481759076A077B0740F450E04B57DE
:102B00005B4FFA01308113272F5FEFCF002321F0B5
:102B10001092370464E7BACF1111B5CF412F50E0BE
:102B200070E060E08091420490914304A0914404DD
:102B3000B09145040697A109B109481759076A07DA
:102B40007B0780F4812F90E0FC01EB57FB4F209135
:102B50003E0430913F046081820F931F0E940D0B51
:102B60001F5FDCCF81E0809337040E942C0A91CF55
:102B70000E942C0A109246040C94E90D61E186E350
:102B8000DBC910923E0410923F0410924004109250
:102B90004104109242041092430410924404109293
:102BA00045041092460480913704882339F08091BF
:102BB0003604882319F081E080933804109237049A
:102BC00033C8143C11F40C94E90D153C59F4809170
:102BD0003804882321F0109238040C94140E62E714
:102BE00083E3AAC961E1FCCF80913404823008F408
:102BF0007EC080913504823008F479C081E08093F2
:102C0000460480917F0490E0B0E0A0E0DC019927C9
:102C100088274091800450E070E060E0762F652FB7
:102C2000542F4427840F951FA61FB71F209181049E
:102C3000820F911DA11DB11D80933E0490933F040E
:102C4000A0934004B09341044091830450E070E0AD
:102C500060E0BA0155274427C0908404D12CF12CA0
:102C6000E12CF9E0CC0CDD1CEE1CFF1CFA95D1F731
:102C70004C0D5D1D6E1D7F1D20918504420F511D61
:102C8000611D711D409342045093430460934404BA
:102C9000709345044E3251056105710558F5813038
:102CA000F4E09F07A105B10528F5840F951FA61F25
:102CB000B71F81309440A105B105E0F48091FF0475
:102CC00091E0980F9093FF048F70806180937B0454
:102CD00082E080937D0480917E04806480937E04F2
:102CE0008DE280937F0420E04BE754E012C960E856
:102CF00084E322C910923E0410923F0410924004D3
:102D00001092410410924204109243041092440421
:102D10001092450463E5802F0FC961E1FCCF8091DB
:102D20000E058F5F80930E0590910805891708F0B6
:102D30001CCA0E94860B61E31DCA21E04CCA1F9287
:102D40000F920FB60F9211242F933F938F939F935F
:102D5000AF93BF938091FF0290910003A091010374
:102D6000B09102033091FE0223E0230F2D3758F576
:102D70000196A11DB11D2093FE028093FF02909346
:102D80000003A0930103B093020380910303909189
:102D90000403A0910503B09106030196A11DB11D86
:102DA0008093030390930403A0930503B093060359
:102DB000BF91AF919F918F913F912F910F900FBE37
:102DC0000F901F90189526E8230F0296A11DB11DA4
:102DD000D2CF1F920F920FB60F9211242F933F93D1
:102DE0004F935F936F937F938F939F93AF93BF9313
:102DF000EF93FF93E0910201F09103010995FF9198
:102E0000EF91BF91AF919F918F917F916F915F9162
:102E10004F913F912F910F900FBE0F901F901895DB
:102E20001F920F920FB60F9211242F933F934F933F
:102E30005F936F937F938F939F93AF93BF93EF9322
:102E4000FF93E0910001F09101010995FF91EF914D
:102E5000BF91AF919F918F917F916F915F914F91B2
:102E60003F912F910F900FBE0F901F9018951F92BA
:102E70000F920FB60F9211242F933F934F935F93AE
:102E80006F937F938F939F93AF93BF93EF93FF9332
:102E900085E293E00E944403FF91EF91BF91AF91CF
:102EA0009F918F917F916F915F914F913F912F9162
:102EB0000F900FBE0F901F9018951F920F920FB694
:102EC0000F9211242F938F939F93EF93FF93E09191
:102ED0003503F09136038081E0913B03F0913C0390
:102EE00082FD1BC0908180913E038F5F8F73209184
:102EF0003F03821741F0E0913E03F0E0EB5DFC4FB1
:102F0000958F80933E03FF91EF919F918F912F9129
:102F10000F900FBE0F901F9018958081F4CFCF9225
:102F2000DF92EF92FF920F931F93CF93DF93109254
:102F300028031092270388EE93E0A0E0B0E080938E
:102F4000290390932A03A0932B03B0932C038CE6C0
:102F500091E0909326038093250385EC90E0909375
:102F600032038093310384EC90E090933403809398
:102F7000330380EC90E0909336038093350381EC2B
:102F800090E0909338038093370382EC90E0909325
:102F90003A038093390386EC90E090933C0380934E
:102FA0003B0310923E0310923F0310924003109295
:102FB000410387E0809305061092060610920706EB
:102FC000109208061092090610920A0610920B063B
:102FD00010920D0610920E0610920F061092100617
:102FE0001092E2051092DE051092DF051092E005C6
:102FF0001092E105CAE0C093DC0582E08093DD0514
:103000008DE090E09093EC058093EB0561E08AE021
:103010000E94C20161E08AE00E94F001C093FF05B6
:103020008091CB0581608093CB0584EF91E09093F4
:10303000D9058093D8052091BA0521602093BA055F
:103040009093C8058093C7052091A905216020931E
:10305000A9059093B7058093B60520919805216046
:10306000209398059093A6058093A5052091870548
:103070002160209387059093950580939405209176
:1030800076052160209376059093840580938305CF
:1030900020916505216020936505909373058093C9
:1030A0007205209154052160209354059093620588
:1030B0008093610590E080E00E94700B91E08111A7
:1030C00001C090E090935305809142058160809308
:1030D000420584EF91E09093500580934F0584E181
:1030E0008093410595E19093400596E190933F05CB
:1030F000E3EDF3E09AE1DF011D929A95E9F7EDEE39
:10310000F3E09DE0DF011D929A95E9F710922E04FD
:1031100010922F0410923004109231041092320455
:103120001092330410923404109235041092360435
:1031300010923704109238041092390410923E0411
:1031400010923F04109240041092410410924204E5
:1031500010924304109244041092450410924604C5
:103160001092470410924C0490E1E2E3F1E0ADE4E8
:10317000B4E001900D929A95E1F7109272041092CA
:10318000BB041092FC041092FE041092FF041092F3
:10319000000510920105109202051092030510928D
:1031A00004051092050591E09093070593E0909334
:1031B00008059FE09093090545EE58E666E070E04B
:1031C00040930A0550930B0560930C0570930D0511
:1031D00010920E0510920F05109211051092100515
:1031E0002FEF3FEF30931305209312051092160531
:1031F00010921705E2E4F1E0A8E1B5E001900D922C
:103200008A95E1F780E093E090932F0580932E0557
:10321000E0E3F5E08EE0DF011D928A95E9F7109278
:103220003E0585E190E00E94700B91E0811101C0A4
:1032300090E09093070584E090E090932D058093B3
:103240002C050E94860B8091C2038E7F8093C2035F
:1032500088EC90E09093D0038093CF0380E390E0DC
:103260000E94720B6C0183EDE82E83E0F82EC2EC15
:10327000D3E000E310E0BDE0CB16D10494F060E0B1
:1032800080E390E00E940D0B60E081E390E0DF912D
:10329000CF911F910F91FF90EF90DF90CF900C9402
:1032A0000D0BCE01825C9340C816D90684F0C8018C
:1032B0000E94720BF701819391937F01C8010296DE
:1032C0000E94700B8BA70D5F1F4F2196EACFDF91F5
:1032D000CF911F910F91FF90EF90DF90CF900895C5
:1032E000CF93DF9300D000D000D01F92CDB7DEB7D0
:1032F000789484B5826084BD84B5816084BD85B5D1
:10330000826085BD85B5816085BD80916E008160DC
:1033100080936E0010928100809181008260809382
:103320008100809181008160809381008091800084
:103330008160809380008091B10084608093B100AF
:103340008091B00081608093B00080917A008460A9
:1033500080937A0080917A00826080937A008091D5
:103360007A00816080937A0080917A0080688093EF
:103370007A001092C100E0913503F091360382E0AB
:103380008083E0913103F09132031082E0913303A6
:10339000F091340380E1808310923D03E091390382
:1033A000F0913A0386E08083E0913703F09138038F
:1033B000808180618083E0913703F09138038081C0
:1033C00088608083E0913703F091380380818068C2
:1033D0008083E0913703F091380380818F7D808373
:1033E00081EF90E00E947C0761E085E00E94F0019F
:1033F00061E086E00E94F00161E087E00E94F00158
:1034000061E089E00E94F00161E081E10E94F00149
:1034100062E080E10E94F00160E081E10E94C2016F
:1034200060E089E00E94C2019090EB0569E170E0E4
:1034300080E090E00E944602412C512C320146E38C
:10344000E42E41E0F42E5AE4C52E51E0D52E60E47E
:10345000862E9A94A92CB12C1FB7F8948091230240
:10346000811125C0F7018491F6019491E82FF0E0D5
:10347000EE0FFF1FE85EFE4FA591B4918C9198234B
:1034800021F461E08AE00E94C20161E08AE00E94CA
:10349000F0018CB580618CBD8CB580648CBD61E021
:1034A0008DE00E94F00161E08BE00E94F0018091CC
:1034B00023028F5F809323021FBF80E591E00E946B
:1034C000090160E08091FF050E94C20180EC0E942A
:1034D000EF0361E08091FF050E94C20165E070E0AA
:1034E00080E090E00E9446028092000680E80E9400
:1034F000620681110C945723FDE0F91508F493C07E
:10350000F501EB57F54E0C940A26931AB41B8A1B4F
:103510008E1B921B961B9A1B9D1BA01BA41BA71BFB
:10352000AB1BAE1BB11B14E806EF87EA482F6AE21B
:103530008FEE95E00E949D04402F69E28FEE95E0AA
:103540000E949D04412F68E28FEE95E00E949D0449
:1035500061E080E20E947E0461E084E20E947E04D9
:1035600061E080E00E947E0460E084E00E947E04CE
:1035700061E088E00E947E0460E080E10E947E04B9
:1035800061E084E10E947E0460E088E10E947E04A4
:1035900010E340E0612F8FEE95E00E949D0460E112
:1035A000610F40E08FEE95E00E949D0460E2610FA4
:1035B00040E08FEE95E00E949D041F5F1E3349F7A7
:1035C00040E060E68FEE95E00E949D0440E060E7F9
:1035D0008FEE95E00E949D0443E06BE28FEE95E054
:1035E0000E949D044CE36CE08FEE95E00E949D04E8
:1035F00040E06DE08FEE95E00E949D0424E644E6F5
:1036000060E68FEE95E00E94250420E640E660E744
:103610008FEE95E00E942504809100060E946206CC
:1036200081110C945723C12CD12C760110920006E5
:1036300080E00E946206882309F49AC08CE991E038
:103640000E946B074AE0C701B6010E9488070E94EA
:10365000780769E170E080E090E00E9446022FEF79
:10366000C21AD20AE20AF20A83E3C816D104E104BC
:10367000F104E1F610E062E08091DD050E94F001C6
:1036800020E440E46BE28FEE95E00E9425048091F7
:10369000DD05823009F06EC084EC92E09093010168
:1036A00080930001809169008C7F82608093690023
:1036B000E89A83B7817F846083BF612F86E00E9490
:1036C000C20160E086E00E94C201809106058F3F42
:1036D00011F40C94A5232091D3033091D403A901B4
:1036E0005527E2ECF3E0A5EDB3E001E010E09CE744
:1036F0004017510708F44FC06D917D916E397340AA
:1037000029F484A589278F7009F447C00F5F1F4FE4
:103710003196EECF14E806EF89E808CF13E805EEFE
:1037200087E804CF14E806EF85E800CF14E806EF39
:1037300084E8FCCE13E805EEFBCF11E803EDF8CFEB
:1037400014E806EF81E8F2CE13E805EEFBCF14E8AB
:1037500006EF80E8EBCE13E805EEFBCF11E801EDB4
:10376000E5CE10E800ECE2CE14E806EF83E9DECE09
:1037700011E081CF833009F09CCF84EC92E09093EC
:1037800003018093020180916900837F88608093A8
:103790006900E99A8ECF0FEF1FEF2C3018F00F3F22
:1037A000100791F10E9478020F3F100709F024C121
:1037B0008091D3039091D40301969093D403809386
:1037C000D303FC01FF27EE0FFF1FEE53FC4F8EE9E2
:1037D00093E0928B818B0091D3031091D403112736
:1037E000F801EE53FC4F8CE783A70E947802000F8C
:1037F000111F000F111FF801E650FC4F6083718309
:10380000828393830E94210B8091EA028F7B8093B5
:10381000EA028091EB02807E88608093EB0286EA68
:103820008093ED028091EE028D7E80628093EE02A5
:1038300087E0809305061092060610920706109204
:10384000090610920A065E01F8E0AF0EB11CA7E06F
:103850006A2E88248A94982C7724739464E170E00B
:103860008AEF92E00E948402882341F19091EA025B
:1038700081E0890F8F70907F892B8093EA0290916D
:10388000EB0289279091EC0289279091ED0289271C
:103890009091EE0289279091EF0289279091F00292
:1038A00089278093F1020AEE12E028E040EC55E00F
:1038B00060E070E08FEE95E00E94DD048091D90217
:1038C000811113C06AE070E085ED92E00E948402ED
:1038D000882359F00DEC12E028E04CE855E060E058
:1038E00070E08FEE95E00E94DD048091CC028111A2
:1038F0002EC06AE070E088EC92E00E948402882387
:1039000031F1809105018F7091E0980F909305013E
:1039100080910601209107018227209108018227CA
:1039200020910901822720910A01822720910B0111
:10393000822789278093040104E011E028E04CE805
:1039400054E060E070E08FEE95E00E94DD0468E2F4
:1039500070E084EC92E00E948402882309F48AC01B
:103960009091DB0221E0290F2F70907F922B909392
:10397000DB022BED32E0DE0111967D01F901919120
:103980009F01F70191937F01AE16BF06B9F7309101
:103990000B06609106061091090690910806709139
:1039A0000506EA16FB0671F12D91311101C0962F23
:1039B0001123C1F030E0A901559547954575220FB7
:1039C000331F2A7A242B422F50E09A0135952795F0
:1039D000359527952373440F551F440F551F4C7C75
:1039E000242B2295922728E0382F492F990F47FD45
:1039F00097272150D1F7D5CFF801EE53FC4F8CE734
:103A000083A702CF80910A068823C9F0292F30E0CE
:103A1000C901959587958575220F331F2A7A822BC8
:103A200090E09C0135952795359527952373880F50
:103A3000991F880F991F8C7C822B982F92958091CB
:103A4000070698279093DA02609205061092060600
:103A500010920706109208061092090610920A06A4
:103A600010920B0610920D0610920E0610920F0681
:103A7000109210068091C302882309F459C06EE1A8
:103A800070E08FEB92E00E948402882309F44BC01F
:103A90009091F402905F9093F4028091F302886019
:103AA0008093F30289279091F50289278093F2028F
:103AB00085E091E00E94B30340E16AE873E080E0B2
:103AC00090E00E94880782E091E00E94B3030AED33
:103AD00012E0F801808D803120F490E080E00E94B7
:103AE000D807F801608D70E090E080E040E10E942E
:103AF000880780E091E00E94B3030F5F1F4F8EEDB7
:103B000092E08017910729F78EEF90E00E947C07E2
:103B100002EF12E024E04AE853E060E070E08FEE4C
:103B200095E00E94DD048091BE0281111092C302D3
:103B30006091BD0200910F03662311F0602F67258D
:103B40008BEC95E00E94D1061091BC028EEF810FA4
:103B500061E0823008F060E089EA95E00E94D106D9
:103B60006091100388E995E00E94D1066091BB0244
:103B700087E895E00E94D10660910D0386E795E005
:103B80000E94D106602F85E695E00E94D1066091E3
:103B9000BA028AEB95E00E94D106809111039091C0
:103BA0001203892B19F11092130391E08091D30332
:103BB000811101C090E08091EE0290FB80F990911C
:103BC000BB0288608F7E90FF806190FB85F98093B7
:103BD000EE021091CB051295117081FD5DC08091B0
:103BE00006058170111159C080E057C089EA95E03F
:103BF0000E94BF06019741F570921303113099F2AC
:103C00008091CB05982F91708295817098132FC069
:103C100088E995E00E94BF06019629F287E895E0C1
:103C20000E94BF06019709F4BECF86E795E00E9487
:103C3000BF06019709F4B7CF85E695E00E94BF065D
:103C4000019709F0B2CFAFCF88E995E00E94BF0697
:103C5000019791F287E895E00E94BF06019661F214
:103C600086E795E00E94BF06019641F6C5CF0E9407
:103C700078020091D0051091D1052091D2053091A4
:103C8000D305601B710B820B930B693E734081055A
:103C9000910508F088CFBCCF81E09091EE0280FBC7
:103CA00097F99093EE0291E0209111033091120365
:103CB0002431310508F090E08091EF0290FB87F904
:103CC0008093EF02111159C01091B9028091F00256
:103CD00010FB83F98093F00290911303992339F03C
:103CE00081E02091110330911203232B09F080E031
:103CF0002091EA0280FB26F92093EA028091EB02F0
:103D0000807E992339F02091110330911203232BE7
:103D100009F488608093EB022091DD0530E0F90121
:103D2000EC5AFE4F8491F901E05CFE4F1491F901C9
:103D3000E45DFE4F0491002309F44CC081110E9400
:103D40009901E02FF0E0EE0FFF1FE25FFE4FA5911B
:103D5000B491EC911E23F1F160E085E00E94C20174
:103D600080E090E0892B09F479CD0E94300388230C
:103D700009F472CD0E9400006FCD0E947802C090BD
:103D8000CC05D090CD05E090CE05F090CF056C1914
:103D90007D098E099F09613178498240910508F4B7
:103DA00093CF0E947802C090CC05D090CD05E090D2
:103DB000CE05F090CF056C197D098E099F09603200
:103DC0007F4B8240910508F07FCF8091060582FFEE
:103DD0007BCF7CCF80E591E00E94090160E080917B
:103DE000FF050E94C20180EA0E94EF0380E00E946A
:103DF000EF03182F61E08091FF050E94C20110FFC0
:103E000057C081E60E94BB0520E041E06CE28FEEE6
:103E100095E00E9425048091EF05882389F0809128
:103E2000F0059091F105A091F205B091F305B0680D
:103E30008093F0059093F105A093F205B093F305FC
:103E40008091FD05882389F08091F0059091F1051E
:103E5000A091F205B091F305B0648093F0059093C2
:103E6000F105A093F205B093F3058091F0059091D0
:103E7000F105A091F205B091F3058093DE059093D2
:103E8000DF05A093E005B093E1058091F4058093F0
:103E9000E205ECEDF5E0CF018C5D95403196209187
:103EA000F4052817190661F05CF0808D8683F3CF46
:103EB00011FF06C081E70E94BB0520E042E0A6CFCB
:103EC0000E947802609301067093020680930306B5
:103ED0009093040661E085E00E94C2010E948E0B6F
:103EE000C090DE05D090DF05E090E005F090E105A0
:103EF00080E9C81683E0D806E104F10409F043C064
:103F000063E087E00E941A0180930F0360E082E083
:103F10000E941A018093100364E083E00E941A015A
:103F200080930E0380E2C81683E0D806E104F10412
:103F300009F057C083E00E940C01182F84E00E9412
:103F40000C0190E095958795982F8827810F911DFA
:103F500064E670E00E94F6257093120360931103EB
:103F600090E080E00E945E2426E636E646E650E4D5
:103F70000E947D266093B5027093B6028093B702CB
:103F80009093B8024CC098EAC91694E0D906E104AF
:103F9000F104D1F464E084E00E941A01182F65E076
:103FA00084E00E941A01880F810F8093BC0266E0B2
:103FB00084E00E941A018093BD0267E084E00E94C1
:103FC0001A018093BA02AECFE2E7CE16E5E0DE0634
:103FD000E104F104B9F461E080E00E941A018093E9
:103FE000BB0290E2C91695E0D906E104F104B9F4E8
:103FF00066E082E00E941A01682F84E595E00E9445
:10400000D1060DC0F0E5CF16D104E104F10409F0AA
:10401000B1C064E081E00E941A0180930D03C0905A
:10402000DE05D090DF05E090E005F090E105E0E8E6
:10403000CE16E2E0DE0609F0A6C082E00E940C0186
:10404000182F83E00E940C01682F70E0762F6627FE
:10405000610F711D90E080E00E945E2420E030E05E
:1040600040E85EE30E94BF240E94F62670930A0394
:104070006093090385E00E940C01682F70E090E0D6
:1040800080E00E9460242DEC3CEC4CEC5EE30E944E
:10409000BF240E94EF2670930C0360930B0320E271
:1040A000C21624E0D206E104F10409F0FBC082E06C
:1040B0000E940C018F3F09F4F0C0682F70E090E07F
:1040C00080E00E94602420E030E040E05FE30E9456
:1040D000BF2420E030E048E452E40E9410260E9411
:1040E000EF26709308036093070384E595E00E9430
:1040F000BF06019749F46091530567256093530506
:1041000090E080E00E940D0B8091110390911203CA
:10411000449708F0B8C1809107039091080306976F
:104120000CF4B1C18091AC028111ADC180910E033C
:10413000811112C084E292E00E94BF06019709F04B
:104140008DC17092AC0288EA91E00E94CC07809108
:104150000E03882309F497C186E492E00E94BF060B
:10416000019709F053C27092AC0282EB91E00E9479
:10417000CC0789C122E9C21623E0D206E104F1048A
:1041800009F44DCFCFCEFCEACF16F1E0DF06E10413
:10419000F10409F084CF62E085E00E941A018111E8
:1041A00052C086E00E940C01082F87E00E940C019B
:1041B000182F66E085E00E941A01882309F464C084
:1041C0006091B5027091B6028091B7029091B802E9
:1041D0009B01AC010E94BF241B012C01612F70E0E8
:1041E000762F662766277370600F711D072E000CEF
:1041F000880B990B0E94602420E030E040E05DE3F2
:104200000E94BF2420E030E040E851E40E941026E4
:104210009B01AC010E9411269B01AC01C201B101BE
:104220000E947D261B012C0120E030E0A9010E94A4
:10423000592487FD24C02092B1023092B2024092EC
:10424000B3025092B40296E6C91693E0D906E1048F
:10425000F10409F0D2C0E090E20502EE12E0F12C88
:10426000E8E0EE1508F447C0EF1409F444C08F2DC0
:104270000E940C01F80181938F01F394F1CF57FA5A
:10428000509457F85094D7CF1092B1021092B202C6
:104290001092B3021092B402D6CF9092080380928B
:1042A000070323CF88E6C81683E0D806E104F104AB
:1042B00009F01DC283E00E940C01182F84E00E94C7
:1042C0000C0190E0982F882788279770810F911D07
:1042D0009C012E5F37402230310508F01BC210923E
:1042E000AD021092AE021092AF021092B002FDCE5B
:1042F0007092D902FACE3091E4028091DB0230FB59
:1043000084F931FB85F9932F969596959295990F9F
:10431000990F907C8F73892B8093DB029091DC0244
:104320002091E6029E7F20FB91F9422F440F4C71B1
:10433000892F837E9091E702842B95FB85F937FBCB
:10434000332730F930FB86F996FB87F98093DC023E
:10435000991F9927991F8091E802382F330F392B25
:10436000982F991F9927991F8091E9028170880FD2
:104370003093DD02982B8091DE028C7F27FB332760
:1043800030F9892B30FB82F9877F8F7E8093DE02A4
:104390009091E50293708091DF02911127C08F7C8C
:1043A0008093DF028091DF02982F92959370392FCE
:1043B0003370807F432F440F440F832B842B9295BF
:1043C000990F990F907C8F73892B8093DF028091D6
:1043D000E0028E7F25FB81F924FB82F99091E302B4
:1043E000907F8F70892B8093E0027FCE913019F4FB
:1043F0008F7C8061D5CF8063D3CFFAE8CF16F3E00E
:10440000DF06E104F104A1F4E090E20502EF12E01E
:10441000F12C28E02E1508F468CEEF1409F465CECF
:104420008F2D0E940C01F80181938F01F394F1CF3D
:10443000F8E8CF16F2E0DF06E104F10409F055CE0A
:1044400067E082E00E941A01182F66E082E00E9475
:104450001A01110F182B1093BE0247CE85E392E08C
:104460000E94BF06019709F46CCE88E692E00E9494
:10447000BF06019709F465CE89E792E00E94BF0666
:10448000019709F45ECE6091AC0282E495E00E944F
:10449000D106809111039091120301970F9718F59F
:1044A00080910B0390910C030397ECF4C090AD0244
:1044B000D090AE02E090AF02F090B00220E030E089
:1044C000A901C701B6010E94592487FFB5C020E0A9
:1044D00030E040E05FE3C701B6010E9410260E9471
:1044E000E4080E94A40680910B0390910C030397AB
:1044F00044F060E070E0CB010E94E40880E00E949C
:10450000A4068091110390911203419708F077C09F
:1045100020E030E0A9016091AD027091AE0280917F
:10452000AF029091B0020E94592487FD05C080918E
:10453000C302882309F463C08CEB91E00E946B07EF
:10454000609111037091120390E080E04AE00E94B4
:10455000880781EC91E00E946B076091AD02709139
:10456000AE028091AF029091B00242E00E94080832
:1045700088EC91E00E946B0790E080E00E94D807F1
:1045800089ED91E00E946B0780910B0390910C03E1
:104590000E94D80785EE91E00E946B0701E010E0D1
:1045A00020E030E0A9016091AD027091AE028091EF
:1045B000AF029091B0020E94592487FD02C010E022
:1045C00000E0C8010E94D8078EEE91E00E946B07C0
:1045D00090E080E00E94D80781E092E00E946B07A3
:1045E00090E080E00E94D80783E192E00E946B0790
:1045F0008091C30290E00E94D8070E9478078091C2
:10460000BA0584FF2AC01092B902AACB87E592E0CE
:104610000E94BF06019709F4A6CD8AE892E00E94A5
:10462000BF06019709F49FCD8BE992E00E94BF0677
:10463000019709F028CF97CD20E030E0A901C7010C
:10464000B6010E94252718160CF04DCF60E070E0EF
:10465000CB010E94E40880E044CF80FFD4CF0E94C9
:1046600078020091BF051091C0052091C1053091DD
:10467000C205601B710B820B930B653671058105BA
:10468000910508F4C0CF0E94780269387341810512
:10469000910508F4B8CF80910D03882309F4B3CFB6
:1046A000809110038111AFCF7092B90259CB87EE80
:1046B00090E00E94B3034AE0C301B2010E94880760
:1046C0000E94780769E170E080E090E00E94460275
:1046D0009FEF491A590A690A790AE3E34E16510411
:1046E0006104710411F00C942C1A0C943A1BFCE830
:1046F000CF16F5E0DF06E104F10409F4F9CD2CE86A
:10470000C21624E0D206E104F10409F09CCD7092B7
:10471000CC02EBCCBC01990F880B990B0E94602452
:104720002AE037ED43EA5BE30E94BF242DE33AE041
:1047300047EE50E40E9410266093AD027093AE02E3
:104740008093AF029093B002D0CC60E082E190E021
:104750000E940D0B0C946B1B8F929F92AF92BF9295
:10476000CF92DF92EF92FF92CF93DF93EC016881BB
:1047700079818A819B81611571058105910521F4FB
:1047800064E279ED8BE597E02DE133EF41E050E015
:104790000E94932549015A019B01AC01A7EAB1E4AB
:1047A0000E94B2256B017C01ACEEB4EFA50194012F
:1047B0000E94C025C60ED71EE81EF91EF7FE06C0D1
:1047C00081E0C81AD108E10880E8F80AC882D982D5
:1047D000EA82FB82C701B6019F77DF91CF91FF90FC
:1047E000EF90DF90CF90BF90AF909F908F90089503
:1047F0008F929F92AF92BF92CF92DF92EF92FF92F1
:1048000060911C0170911D0180911E0190911F010A
:10481000611571058105910521F464E279ED8BE55F
:1048200097E02DE133EF41E050E00E9493254901EC
:104830005A019B01AC01A7EAB1E40E94B2256B01C9
:104840007C01ACEEB4EFA50194010E94C025C60E18
:10485000D71EE81EF91EF7FE06C081E0C81AD1086F
:10486000E10880E8F80AC0921C01D0921D01E09294
:104870001E01F0921F01C701B6019F77FF90EF90D4
:10488000DF90CF90BF90AF909F908F9008956093EE
:104890001C0170931D0180931E0190931F010895C8
:1048A000FB01DC0102C005900D9241505040D8F749
:1048B00008950E949B2408F481E00895E89409C0BB
:1048C00097FB3EF490958095709561957F4F8F4F43
:1048D0009F4F9923A9F0F92F96E9BB279395F69559
:1048E000879577956795B795F111F8CFFAF4BB0FD7
:1048F00011F460FF1BC06F5F7F4F8F4F9F4F16C03B
:10490000882311F096E911C0772321F09EE8872FC4
:10491000762F05C0662371F096E8862F70E060E080
:104920002AF09A95660F771F881FDAF7880F9695F9
:10493000879597F90895990F0008550FAA0BE0E89D
:10494000FEEF16161706E807F907C0F01216130651
:10495000E407F50798F0621B730B840B950B39F491
:104960000A2661F0232B242B252B21F408950A26F7
:1049700009F4A140A6958FEF811D811D08950E9425
:10498000D2240C9443250E94352538F00E943C2502
:1049900020F0952311F00C942C250C943225112431
:1049A0000C9477250E94542570F3959FC1F3950FC1
:1049B00050E0551F629FF001729FBB27F00DB11DA3
:1049C000639FAA27F00DB11DAA1F649F6627B00D33
:1049D000A11D661F829F2227B00DA11D621F739F1C
:1049E000B00DA11D621F839FA00D611D221F749F2A
:1049F0003327A00D611D231F849F600D211D822F71
:104A0000762F6A2F11249F5750409AF0F1F0882397
:104A10004AF0EE0FFF1FBB1F661F771F881F9150C4
:104A20005040A9F79E3F510580F00C942C250C9422
:104A300077255F3FE4F3983ED4F3869577956795A5
:104A4000B795F795E7959F5FC1F7FE2B880F911DEE
:104A50009695879597F9089597F99F6780E870E094
:104A600060E008959FEF80EC089500240A941616E4
:104A7000170618060906089500240A94121613064C
:104A8000140605060895092E0394000C11F48823DA
:104A900052F0BB0F40F4BF2B11F460FF04C06F5FF6
:104AA0007F4F8F4F9F4F089557FD9058440F551FCC
:104AB00059F05F3F71F04795880F97FB991F61F0A0
:104AC0009F3F79F087950895121613061406551F17
:104AD000F2CF4695F1DF08C0161617061806991F83
:104AE000F1CF86957105610508940895E894BB2778
:104AF00066277727CB0197F90895F999FECF92BDE4
:104B000081BDF89A992780B50895262FF999FECF8F
:104B10001FBA92BD81BD20BD0FB6F894FA9AF99ADA
:104B20000FBE01960895052E97FB1EF400940E9477
:104B3000AA2557FD07D00E94C52507FC03D04EF4D7
:104B40000C94AA2550954095309521953F4F4F4F95
:104B50005F4F089590958095709561957F4F8F4F29
:104B60009F4F08950E94E725A59F900DB49F900D3B
:104B7000A49F800D911D11240895B7FF0C94B225B8
:104B80000E94B225821B930B0895A1E21A2EAA1B44
:104B9000BB1BFD010DC0AA1FBB1FEE1FFF1FA217ED
:104BA000B307E407F50720F0A21BB30BE40BF50BEA
:104BB000661F771F881F991F1A9469F76095709573
:104BC000809590959B01AC01BD01CF010895A29FF6
:104BD000B001B39FC001A39F700D811D1124911DD1
:104BE000B29F700D811D1124911D0895AA1BBB1B3E
:104BF00051E107C0AA1FBB1FA617B70710F0A61BDD
:104C0000B70B881F991F5A95A9F780959095BC01FD
:104C1000CD010895EE0FFF1F0590F491E02D09944A
:104C20005058BB27AA270E9428260C9443250E948F
:104C3000352538F00E943C2520F039F49F3F19F4C7
:104C400026F40C9432250EF4E095E7FB0C942C2509
:104C5000E92F0E94542558F3BA1762077307840797
:104C6000950720F079F4A6F50C9476250EF4E095DE
:104C70000B2EBA2FA02D0B01B90190010C01CA0116
:104C8000A0011124FF27591B99F0593F50F4503EC1
:104C900068F11A16F040A22F232F342F4427585FB3
:104CA000F3CF469537952795A795F0405395C9F7CB
:104CB0007EF41F16BA0B620B730B840BBAF0915083
:104CC000A1F0FF0FBB1F661F771F881FC2F70EC022
:104CD000BA0F621F731F841F48F4879577956795F5
:104CE000B795F7959E3F08F0B0CF9395880F08F0E1
:104CF0009927EE0F9795879508950E9491260C9419
:104D000043250E943C2558F00E94352540F029F4A7
:104D10005F3F29F00C942C2551110C9477250C94AD
:104D200032250E94542568F39923B1F3552391F35A
:104D3000951B550BBB27AA2762177307840738F00A
:104D40009F5F5F4F220F331F441FAA1FA9F335D067
:104D50000E2E3AF0E0E832D091505040E695001C1B
:104D6000CAF72BD0FE2F29D0660F771F881FBB1FD5
:104D7000261737074807AB07B0E809F0BB0B802DB3
:104D8000BF01FF2793585F4F3AF09E3F510578F0DF
:104D90000C942C250C9477255F3FE4F3983ED4F3D4
:104DA000869577956795B795F7959F5FC9F7880FB3
:104DB000911D9695879597F90895E1E0660F771F05
:104DC000881FBB1F621773078407BA0720F0621B96
:104DD000730B840BBA0BEE1F88F7E09508950E94C1
:104DE000F6266894B1110C94772508950E945C25ED
:104DF00088F09F5798F0B92F9927B751B0F0E1F09C
:104E0000660F771F881F991F1AF0BA95C9F714C04B
:104E1000B13091F00E947625B1E008950C9476258A
:104E2000672F782F8827B85F39F0B93FCCF3869584
:104E300077956795B395D9F73EF4909580957095E1
:104E400061957F4F8F4F9F4F08950E949B2408F4D8
:104E50008FEF08950E949B24880B990B0895FB0106
:104E6000DC0102C001900D9241505040D8F70895E6
:044E7000F894FFCFE4
:104E7400C502C5020000070000000000000E61002A
:104E84001C00001C00001C00001C000001000000AD
:104E9400304050A10F649C0A9C1080015A100002FB
:104EA4005089C379BFDBE911468669B69B29159CF5
:104EB400450D3A00FE0235001A034700D8020700E8
:104EC400510719009407000E71B80101010401068D
:104ED4000107010801030114000000006603C60273
:104EE400F302CE032403020316030D0A006E616E5F
:104EF40000696E66006F76660057726974696E6742
:104F0400445443746F454550524F4D004D43502017
:104F140053744D64653A2000427265616B696E6733
:104F24004600427265616B696E6752006B6D683A48
:104F340000204143433A20002062726F6B65207465
:104F44006F20306B6D683A20002067617350656490
:104F5400616C3A200020646563656C3A20002C2063
:104F640053746F7070696E675669614550423A2098
:104F7400002053746F7070706564566961455042C7
:104F84003A20002072657143437475726E4F6E3A15
:024F94002000FB
:00000001FF
